{
  "_format": "hh-sol-artifact-1",
  "contractName": "WackoWordsNFT",
  "sourceName": "contracts/WackoWordsNFT.sol",
  "abi": [
    {
      "inputs": [],
      "stateMutability": "nonpayable",
      "type": "constructor"
    },
    {
      "anonymous": false,
      "inputs": [
        {
          "indexed": true,
          "internalType": "address",
          "name": "owner",
          "type": "address"
        },
        {
          "indexed": true,
          "internalType": "address",
          "name": "approved",
          "type": "address"
        },
        {
          "indexed": true,
          "internalType": "uint256",
          "name": "tokenId",
          "type": "uint256"
        }
      ],
      "name": "Approval",
      "type": "event"
    },
    {
      "anonymous": false,
      "inputs": [
        {
          "indexed": true,
          "internalType": "address",
          "name": "owner",
          "type": "address"
        },
        {
          "indexed": true,
          "internalType": "address",
          "name": "operator",
          "type": "address"
        },
        {
          "indexed": false,
          "internalType": "bool",
          "name": "approved",
          "type": "bool"
        }
      ],
      "name": "ApprovalForAll",
      "type": "event"
    },
    {
      "anonymous": false,
      "inputs": [
        {
          "indexed": false,
          "internalType": "address",
          "name": "sender",
          "type": "address"
        },
        {
          "indexed": false,
          "internalType": "uint256",
          "name": "tokenId",
          "type": "uint256"
        }
      ],
      "name": "NewEpicNFTMinted",
      "type": "event"
    },
    {
      "anonymous": false,
      "inputs": [
        {
          "indexed": true,
          "internalType": "address",
          "name": "from",
          "type": "address"
        },
        {
          "indexed": true,
          "internalType": "address",
          "name": "to",
          "type": "address"
        },
        {
          "indexed": true,
          "internalType": "uint256",
          "name": "tokenId",
          "type": "uint256"
        }
      ],
      "name": "Transfer",
      "type": "event"
    },
    {
      "inputs": [
        {
          "internalType": "address",
          "name": "to",
          "type": "address"
        },
        {
          "internalType": "uint256",
          "name": "tokenId",
          "type": "uint256"
        }
      ],
      "name": "approve",
      "outputs": [],
      "stateMutability": "nonpayable",
      "type": "function"
    },
    {
      "inputs": [
        {
          "internalType": "address",
          "name": "owner",
          "type": "address"
        }
      ],
      "name": "balanceOf",
      "outputs": [
        {
          "internalType": "uint256",
          "name": "",
          "type": "uint256"
        }
      ],
      "stateMutability": "view",
      "type": "function"
    },
    {
      "inputs": [
        {
          "internalType": "uint256",
          "name": "tokenId",
          "type": "uint256"
        }
      ],
      "name": "getApproved",
      "outputs": [
        {
          "internalType": "address",
          "name": "",
          "type": "address"
        }
      ],
      "stateMutability": "view",
      "type": "function"
    },
    {
      "inputs": [],
      "name": "getTotalNFTCount",
      "outputs": [
        {
          "internalType": "uint256",
          "name": "",
          "type": "uint256"
        }
      ],
      "stateMutability": "view",
      "type": "function"
    },
    {
      "inputs": [
        {
          "internalType": "address",
          "name": "owner",
          "type": "address"
        },
        {
          "internalType": "address",
          "name": "operator",
          "type": "address"
        }
      ],
      "name": "isApprovedForAll",
      "outputs": [
        {
          "internalType": "bool",
          "name": "",
          "type": "bool"
        }
      ],
      "stateMutability": "view",
      "type": "function"
    },
    {
      "inputs": [],
      "name": "makeAnEpicNFT",
      "outputs": [],
      "stateMutability": "nonpayable",
      "type": "function"
    },
    {
      "inputs": [],
      "name": "name",
      "outputs": [
        {
          "internalType": "string",
          "name": "",
          "type": "string"
        }
      ],
      "stateMutability": "view",
      "type": "function"
    },
    {
      "inputs": [
        {
          "internalType": "uint256",
          "name": "tokenId",
          "type": "uint256"
        }
      ],
      "name": "ownerOf",
      "outputs": [
        {
          "internalType": "address",
          "name": "",
          "type": "address"
        }
      ],
      "stateMutability": "view",
      "type": "function"
    },
    {
      "inputs": [
        {
          "internalType": "uint256",
          "name": "tokenId",
          "type": "uint256"
        }
      ],
      "name": "pickRandomColor",
      "outputs": [
        {
          "internalType": "string",
          "name": "",
          "type": "string"
        }
      ],
      "stateMutability": "view",
      "type": "function"
    },
    {
      "inputs": [
        {
          "internalType": "uint256",
          "name": "tokenId",
          "type": "uint256"
        }
      ],
      "name": "pickRandomFirstWord",
      "outputs": [
        {
          "internalType": "string",
          "name": "",
          "type": "string"
        }
      ],
      "stateMutability": "view",
      "type": "function"
    },
    {
      "inputs": [
        {
          "internalType": "uint256",
          "name": "tokenId",
          "type": "uint256"
        }
      ],
      "name": "pickRandomSecondWord",
      "outputs": [
        {
          "internalType": "string",
          "name": "",
          "type": "string"
        }
      ],
      "stateMutability": "view",
      "type": "function"
    },
    {
      "inputs": [
        {
          "internalType": "uint256",
          "name": "tokenId",
          "type": "uint256"
        }
      ],
      "name": "pickRandomThirdWord",
      "outputs": [
        {
          "internalType": "string",
          "name": "",
          "type": "string"
        }
      ],
      "stateMutability": "view",
      "type": "function"
    },
    {
      "inputs": [
        {
          "internalType": "address",
          "name": "from",
          "type": "address"
        },
        {
          "internalType": "address",
          "name": "to",
          "type": "address"
        },
        {
          "internalType": "uint256",
          "name": "tokenId",
          "type": "uint256"
        }
      ],
      "name": "safeTransferFrom",
      "outputs": [],
      "stateMutability": "nonpayable",
      "type": "function"
    },
    {
      "inputs": [
        {
          "internalType": "address",
          "name": "from",
          "type": "address"
        },
        {
          "internalType": "address",
          "name": "to",
          "type": "address"
        },
        {
          "internalType": "uint256",
          "name": "tokenId",
          "type": "uint256"
        },
        {
          "internalType": "bytes",
          "name": "_data",
          "type": "bytes"
        }
      ],
      "name": "safeTransferFrom",
      "outputs": [],
      "stateMutability": "nonpayable",
      "type": "function"
    },
    {
      "inputs": [
        {
          "internalType": "address",
          "name": "operator",
          "type": "address"
        },
        {
          "internalType": "bool",
          "name": "approved",
          "type": "bool"
        }
      ],
      "name": "setApprovalForAll",
      "outputs": [],
      "stateMutability": "nonpayable",
      "type": "function"
    },
    {
      "inputs": [
        {
          "internalType": "bytes4",
          "name": "interfaceId",
          "type": "bytes4"
        }
      ],
      "name": "supportsInterface",
      "outputs": [
        {
          "internalType": "bool",
          "name": "",
          "type": "bool"
        }
      ],
      "stateMutability": "view",
      "type": "function"
    },
    {
      "inputs": [],
      "name": "symbol",
      "outputs": [
        {
          "internalType": "string",
          "name": "",
          "type": "string"
        }
      ],
      "stateMutability": "view",
      "type": "function"
    },
    {
      "inputs": [
        {
          "internalType": "uint256",
          "name": "tokenId",
          "type": "uint256"
        }
      ],
      "name": "tokenURI",
      "outputs": [
        {
          "internalType": "string",
          "name": "",
          "type": "string"
        }
      ],
      "stateMutability": "view",
      "type": "function"
    },
    {
      "inputs": [
        {
          "internalType": "address",
          "name": "from",
          "type": "address"
        },
        {
          "internalType": "address",
          "name": "to",
          "type": "address"
        },
        {
          "internalType": "uint256",
          "name": "tokenId",
          "type": "uint256"
        }
      ],
      "name": "transferFrom",
      "outputs": [],
      "stateMutability": "nonpayable",
      "type": "function"
    }
  ],
  "bytecode": "0x608060405260405180610120016040528060fc8152602001620057c660fc9139600890816200002f9190620016f7565b50604051806080016040528060568152602001620058c260569139600990816200005a9190620016f7565b506040518060400160405280600d81526020017f3c2f746578743e3c2f7376673e00000000000000000000000000000000000000815250600a9081620000a19190620016f7565b506040518061028001604052806040518060400160405280600781526020017f416972706f72740000000000000000000000000000000000000000000000000081525081526020016040518060400160405280600481526020017f506f72740000000000000000000000000000000000000000000000000000000081525081526020016040518060400160405280600781526020017f48656c697061640000000000000000000000000000000000000000000000000081525081526020016040518060400160405280600681526020017f476172616765000000000000000000000000000000000000000000000000000081525081526020016040518060400160405280600781526020017f53746174696f6e0000000000000000000000000000000000000000000000000081525081526020016040518060400160405280600481526020017f53746f700000000000000000000000000000000000000000000000000000000081525081526020016040518060400160405280600481526020017f596172640000000000000000000000000000000000000000000000000000000081525081526020016040518060400160405280600481526020017f446f636b0000000000000000000000000000000000000000000000000000000081525081526020016040518060400160405280600581526020017f4172656e6100000000000000000000000000000000000000000000000000000081525081526020016040518060400160405280600481526020017f52696e670000000000000000000000000000000000000000000000000000000081525081526020016040518060400160405280600581526020017f537472697000000000000000000000000000000000000000000000000000000081525081526020016040518060400160405280600681526020017f52756e776179000000000000000000000000000000000000000000000000000081525081526020016040518060400160405280600881526020017f447269766577617900000000000000000000000000000000000000000000000081525081526020016040518060400160405280600581526020017f4465706f7400000000000000000000000000000000000000000000000000000081525081526020016040518060400160405280600881526020017f5465726d696e616c00000000000000000000000000000000000000000000000081525081526020016040518060400160405280600481526020017f4c616e650000000000000000000000000000000000000000000000000000000081525081526020016040518060400160405280600481526020017f5a6f6e650000000000000000000000000000000000000000000000000000000081525081526020016040518060400160405280600881526020017f416972737472697000000000000000000000000000000000000000000000000081525081526020016040518060400160405280600881526020017f48656c69706f727400000000000000000000000000000000000000000000000081525081526020016040518060400160405280600481526020017f5175617900000000000000000000000000000000000000000000000000000000815250815250600b9060146200055a92919062001330565b506040518061028001604052806040518060400160405280600581526020017f536b69727400000000000000000000000000000000000000000000000000000081525081526020016040518060400160405280600581526020017f536869727400000000000000000000000000000000000000000000000000000081525081526020016040518060400160405280600681526020017f426c6f757365000000000000000000000000000000000000000000000000000081525081526020016040518060400160405280600781526020017f537765617465720000000000000000000000000000000000000000000000000081525081526020016040518060400160405280600881526020017f54726f757365727300000000000000000000000000000000000000000000000081525081526020016040518060400160405280600581526020017f50616e747300000000000000000000000000000000000000000000000000000081525081526020016040518060400160405280600881526020017f4b6e69636b65727300000000000000000000000000000000000000000000000081525081526020016040518060400160405280600381526020017f427261000000000000000000000000000000000000000000000000000000000081525081526020016040518060400160405280600681526020017f53686f727473000000000000000000000000000000000000000000000000000081525081526020016040518060400160405280600581526020017f4a65616e7300000000000000000000000000000000000000000000000000000081525081526020016040518060400160405280600681526020017f546967687473000000000000000000000000000000000000000000000000000081525081526020016040518060400160405280600881526020017f4c656767696e677300000000000000000000000000000000000000000000000081525081526020016040518060400160405280600581526020017f536f636b7300000000000000000000000000000000000000000000000000000081525081526020016040518060400160405280600381526020017f486174000000000000000000000000000000000000000000000000000000000081525081526020016040518060400160405280600581526020017f536361726600000000000000000000000000000000000000000000000000000081525081526020016040518060400160405280600681526020017f476c6f766573000000000000000000000000000000000000000000000000000081525081526020016040518060400160405280600781526020017f542d73686972740000000000000000000000000000000000000000000000000081525081526020016040518060400160405280600681526020017f506f6e63686f000000000000000000000000000000000000000000000000000081525081526020016040518060400160405280600481526020017f436f61740000000000000000000000000000000000000000000000000000000081525081526020016040518060400160405280600681526020017f4a61636b65740000000000000000000000000000000000000000000000000000815250815250600c90601462000a1392919062001330565b506040518061028001604052806040518060400160405280600981526020017f537061676865747469000000000000000000000000000000000000000000000081525081526020016040518060400160405280600581526020017f50697a7a6100000000000000000000000000000000000000000000000000000081525081526020016040518060400160405280600381526020017f48616d000000000000000000000000000000000000000000000000000000000081525081526020016040518060400160405280600481526020017f466973680000000000000000000000000000000000000000000000000000000081525081526020016040518060400160405280600581526020017f537465616b00000000000000000000000000000000000000000000000000000081525081526020016040518060400160405280600781526020017f436869636b656e0000000000000000000000000000000000000000000000000081525081526020016040518060400160405280600581526020017f4170706c6500000000000000000000000000000000000000000000000000000081525081526020016040518060400160405280600581526020017f4f6c69766500000000000000000000000000000000000000000000000000000081525081526020016040518060400160405280600981526020017f50697374616368696f000000000000000000000000000000000000000000000081525081526020016040518060400160405280600681526020017f436865657365000000000000000000000000000000000000000000000000000081525081526020016040518060400160405280600781526020017f596f67687572740000000000000000000000000000000000000000000000000081525081526020016040518060400160405280600981526020017f50696e656170706c65000000000000000000000000000000000000000000000081525081526020016040518060400160405280600781526020017f4275727269746f0000000000000000000000000000000000000000000000000081525081526020016040518060400160405280600981526020017f43686f636f6c617465000000000000000000000000000000000000000000000081525081526020016040518060400160405280600481526020017f4c616d620000000000000000000000000000000000000000000000000000000081525081526020016040518060400160405280600481526020017f536f75700000000000000000000000000000000000000000000000000000000081525081526020016040518060400160405280600681526020017f506f7461746f000000000000000000000000000000000000000000000000000081525081526020016040518060400160405280600681526020017f546f6d61746f000000000000000000000000000000000000000000000000000081525081526020016040518060400160405280600681526020017f43656c657279000000000000000000000000000000000000000000000000000081525081526020016040518060400160405280600681526020017f4361766961720000000000000000000000000000000000000000000000000000815250815250600d90601462000ecc92919062001330565b506040518061016001604052806040518060400160405280600781526020017f233636666666660000000000000000000000000000000000000000000000000081525081526020016040518060400160405280600781526020017f233636666636360000000000000000000000000000000000000000000000000081525081526020016040518060400160405280600781526020017f233333383566660000000000000000000000000000000000000000000000000081525081526020016040518060400160405280600781526020017f236666333363630000000000000000000000000000000000000000000000000081525081526020016040518060400160405280600781526020017f236666316131610000000000000000000000000000000000000000000000000081525081526020016040518060400160405280600781526020017f236666393930300000000000000000000000000000000000000000000000000081525081526020016040518060400160405280600781526020017f233939333366660000000000000000000000000000000000000000000000000081525081526020016040518060400160405280600781526020017f233830303038300000000000000000000000000000000000000000000000000081525081526020016040518060400160405280600781526020017f233735373561330000000000000000000000000000000000000000000000000081525081526020016040518060400160405280600781526020017f236266343034300000000000000000000000000000000000000000000000000081525081526020016040518060400160405280600781526020017f2366663830626600000000000000000000000000000000000000000000000000815250815250600e90600b6200117292919062001390565b503480156200118057600080fd5b506040518060400160405280600f81526020017f5761636b6f20576f726473204e465400000000000000000000000000000000008152506040518060400160405280600281526020017f57570000000000000000000000000000000000000000000000000000000000008152508160009081620011fe9190620016f7565b508060019081620012109190620016f7565b5050506200125e6040518060400160405280601e81526020017f54686973206973206d79204e465420636f6e74726163742e2057686f612100008152506200126460201b620013171760201c565b62001891565b62001304816040516024016200127b91906200186d565b6040516020818303038152906040527f41304fac000000000000000000000000000000000000000000000000000000007bffffffffffffffffffffffffffffffffffffffffffffffffffffffff19166020820180517bffffffffffffffffffffffffffffffffffffffffffffffffffffffff83818316178352505050506200130760201b60201c565b50565b60008151905060006a636f6e736f6c652e6c6f679050602083016000808483855afa5050505050565b8280548282559060005260206000209081019282156200137d579160200282015b828111156200137c5782518290816200136b9190620016f7565b509160200191906001019062001351565b5b5090506200138c9190620013f0565b5090565b828054828255906000526020600020908101928215620013dd579160200282015b82811115620013dc578251829081620013cb9190620016f7565b5091602001919060010190620013b1565b5b509050620013ec9190620013f0565b5090565b5b808211156200141457600081816200140a919062001418565b50600101620013f1565b5090565b5080546200142690620014e6565b6000825580601f106200143a57506200145b565b601f0160209004906000526020600020908101906200145a91906200145e565b5b50565b5b80821115620014795760008160009055506001016200145f565b5090565b600081519050919050565b7f4e487b7100000000000000000000000000000000000000000000000000000000600052604160045260246000fd5b7f4e487b7100000000000000000000000000000000000000000000000000000000600052602260045260246000fd5b60006002820490506001821680620014ff57607f821691505b602082108103620015155762001514620014b7565b5b50919050565b60008190508160005260206000209050919050565b60006020601f8301049050919050565b600082821b905092915050565b6000600883026200157f7fffffffffffffffffffffffffffffffffffffffffffffffffffffffffffffffff8262001540565b6200158b868362001540565b95508019841693508086168417925050509392505050565b6000819050919050565b6000819050919050565b6000620015d8620015d2620015cc84620015a3565b620015ad565b620015a3565b9050919050565b6000819050919050565b620015f483620015b7565b6200160c6200160382620015df565b8484546200154d565b825550505050565b600090565b6200162362001614565b62001630818484620015e9565b505050565b5b8181101562001658576200164c60008262001619565b60018101905062001636565b5050565b601f821115620016a75762001671816200151b565b6200167c8462001530565b810160208510156200168c578190505b620016a46200169b8562001530565b83018262001635565b50505b505050565b600082821c905092915050565b6000620016cc60001984600802620016ac565b1980831691505092915050565b6000620016e78383620016b9565b9150826002028217905092915050565b62001702826200147d565b67ffffffffffffffff8111156200171e576200171d62001488565b5b6200172a8254620014e6565b620017378282856200165c565b600060209050601f8311600181146200176f57600084156200175a578287015190505b620017668582620016d9565b865550620017d6565b601f1984166200177f866200151b565b60005b82811015620017a95784890151825560018201915060208501945060208101905062001782565b86831015620017c95784890151620017c5601f891682620016b9565b8355505b6001600288020188555050505b505050505050565b600082825260208201905092915050565b60005b838110156200180f578082015181840152602081019050620017f2565b60008484015250505050565b6000601f19601f8301169050919050565b600062001839826200147d565b620018458185620017de565b935062001857818560208601620017ef565b62001862816200181b565b840191505092915050565b600060208201905081810360008301526200188981846200182c565b905092915050565b613f2580620018a16000396000f3fe608060405234801561001057600080fd5b50600436106101215760003560e01c806370a08231116100ad578063bc50c9c111610071578063bc50c9c11461033e578063c575757a1461035c578063c87b56dd1461038c578063de9d132f146103bc578063e985e9c5146103c657610121565b806370a082311461028857806395d89b41146102b8578063a22cb465146102d6578063b187301f146102f2578063b88d4fde1461032257610121565b806323b872dd116100f457806323b872dd146101c05780632de38d68146101dc57806342842e0e1461020c578063514dc8c6146102285780636352211e1461025857610121565b806301ffc9a71461012657806306fdde0314610156578063081812fc14610174578063095ea7b3146101a4575b600080fd5b610140600480360381019061013b91906123bb565b6103f6565b60405161014d9190612403565b60405180910390f35b61015e6104d8565b60405161016b91906124ae565b60405180910390f35b61018e60048036038101906101899190612506565b61056a565b60405161019b9190612574565b60405180910390f35b6101be60048036038101906101b991906125bb565b6105ef565b005b6101da60048036038101906101d591906125fb565b610706565b005b6101f660048036038101906101f19190612506565b610766565b60405161020391906124ae565b60405180910390f35b610226600480360381019061022191906125fb565b61085e565b005b610242600480360381019061023d9190612506565b61087e565b60405161024f91906124ae565b60405180910390f35b610272600480360381019061026d9190612506565b610976565b60405161027f9190612574565b60405180910390f35b6102a2600480360381019061029d919061264e565b610a27565b6040516102af919061268a565b60405180910390f35b6102c0610ade565b6040516102cd91906124ae565b60405180910390f35b6102f060048036038101906102eb91906126d1565b610b70565b005b61030c60048036038101906103079190612506565b610b86565b60405161031991906124ae565b60405180910390f35b61033c60048036038101906103379190612846565b610c7e565b005b610346610ce0565b604051610353919061268a565b60405180910390f35b61037660048036038101906103719190612506565b610cea565b60405161038391906124ae565b60405180910390f35b6103a660048036038101906103a19190612506565b610de2565b6040516103b391906124ae565b60405180910390f35b6103c4610f33565b005b6103e060048036038101906103db91906128c9565b611283565b6040516103ed9190612403565b60405180910390f35b60007f80ac58cd000000000000000000000000000000000000000000000000000000007bffffffffffffffffffffffffffffffffffffffffffffffffffffffff1916827bffffffffffffffffffffffffffffffffffffffffffffffffffffffff191614806104c157507f5b5e139f000000000000000000000000000000000000000000000000000000007bffffffffffffffffffffffffffffffffffffffffffffffffffffffff1916827bffffffffffffffffffffffffffffffffffffffffffffffffffffffff1916145b806104d157506104d0826113b0565b5b9050919050565b6060600080546104e790612938565b80601f016020809104026020016040519081016040528092919081815260200182805461051390612938565b80156105605780601f1061053557610100808354040283529160200191610560565b820191906000526020600020905b81548152906001019060200180831161054357829003601f168201915b5050505050905090565b60006105758261141a565b6105b4576040517f08c379a00000000000000000000000000000000000000000000000000000000081526004016105ab906129db565b60405180910390fd5b6004600083815260200190815260200160002060009054906101000a900473ffffffffffffffffffffffffffffffffffffffff169050919050565b60006105fa82610976565b90508073ffffffffffffffffffffffffffffffffffffffff168373ffffffffffffffffffffffffffffffffffffffff160361066a576040517f08c379a000000000000000000000000000000000000000000000000000000000815260040161066190612a6d565b60405180910390fd5b8073ffffffffffffffffffffffffffffffffffffffff16610689611486565b73ffffffffffffffffffffffffffffffffffffffff1614806106b857506106b7816106b2611486565b611283565b5b6106f7576040517f08c379a00000000000000000000000000000000000000000000000000000000081526004016106ee90612aff565b60405180910390fd5b610701838361148e565b505050565b610717610711611486565b82611547565b610756576040517f08c379a000000000000000000000000000000000000000000000000000000000815260040161074d90612b91565b60405180910390fd5b610761838383611625565b505050565b6060600061079a61077684611880565b6040516020016107869190612c39565b6040516020818303038152906040526119e0565b9050600b80549050816107ad9190612c8a565b9050600b81815481106107c3576107c2612cbb565b5b9060005260206000200180546107d890612938565b80601f016020809104026020016040519081016040528092919081815260200182805461080490612938565b80156108515780601f1061082657610100808354040283529160200191610851565b820191906000526020600020905b81548152906001019060200180831161083457829003601f168201915b5050505050915050919050565b61087983838360405180602001604052806000815250610c7e565b505050565b606060006108b261088e84611880565b60405160200161089e9190612d36565b6040516020818303038152906040526119e0565b9050600e80549050816108c59190612c8a565b9050600e81815481106108db576108da612cbb565b5b9060005260206000200180546108f090612938565b80601f016020809104026020016040519081016040528092919081815260200182805461091c90612938565b80156109695780601f1061093e57610100808354040283529160200191610969565b820191906000526020600020905b81548152906001019060200180831161094c57829003601f168201915b5050505050915050919050565b6000806002600084815260200190815260200160002060009054906101000a900473ffffffffffffffffffffffffffffffffffffffff169050600073ffffffffffffffffffffffffffffffffffffffff168173ffffffffffffffffffffffffffffffffffffffff1603610a1e576040517f08c379a0000000000000000000000000000000000000000000000000000000008152600401610a1590612dca565b60405180910390fd5b80915050919050565b60008073ffffffffffffffffffffffffffffffffffffffff168273ffffffffffffffffffffffffffffffffffffffff1603610a97576040517f08c379a0000000000000000000000000000000000000000000000000000000008152600401610a8e90612e5c565b60405180910390fd5b600360008373ffffffffffffffffffffffffffffffffffffffff1673ffffffffffffffffffffffffffffffffffffffff168152602001908152602001600020549050919050565b606060018054610aed90612938565b80601f0160208091040260200160405190810160405280929190818152602001828054610b1990612938565b8015610b665780601f10610b3b57610100808354040283529160200191610b66565b820191906000526020600020905b815481529060010190602001808311610b4957829003601f168201915b5050505050905090565b610b82610b7b611486565b8383611a13565b5050565b60606000610bba610b9684611880565b604051602001610ba69190612ec8565b6040516020818303038152906040526119e0565b9050600c8054905081610bcd9190612c8a565b9050600c8181548110610be357610be2612cbb565b5b906000526020600020018054610bf890612938565b80601f0160208091040260200160405190810160405280929190818152602001828054610c2490612938565b8015610c715780601f10610c4657610100808354040283529160200191610c71565b820191906000526020600020905b815481529060010190602001808311610c5457829003601f168201915b5050505050915050919050565b610c8f610c89611486565b83611547565b610cce576040517f08c379a0000000000000000000000000000000000000000000000000000000008152600401610cc590612b91565b60405180910390fd5b610cda84848484611b7f565b50505050565b6000600f54905090565b60606000610d1e610cfa84611880565b604051602001610d0a9190612f36565b6040516020818303038152906040526119e0565b9050600d8054905081610d319190612c8a565b9050600d8181548110610d4757610d46612cbb565b5b906000526020600020018054610d5c90612938565b80601f0160208091040260200160405190810160405280929190818152602001828054610d8890612938565b8015610dd55780601f10610daa57610100808354040283529160200191610dd5565b820191906000526020600020905b815481529060010190602001808311610db857829003601f168201915b5050505050915050919050565b6060610ded8261141a565b610e2c576040517f08c379a0000000000000000000000000000000000000000000000000000000008152600401610e2390612fca565b60405180910390fd5b6000600660008481526020019081526020016000208054610e4c90612938565b80601f0160208091040260200160405190810160405280929190818152602001828054610e7890612938565b8015610ec55780601f10610e9a57610100808354040283529160200191610ec5565b820191906000526020600020905b815481529060010190602001808311610ea857829003601f168201915b505050505090506000610ed6611bdb565b90506000815103610eeb578192505050610f2e565b600082511115610f20578082604051602001610f08929190612fea565b60405160208183030381529060405292505050610f2e565b610f2984611bf2565b925050505b919050565b6003601060003373ffffffffffffffffffffffffffffffffffffffff1673ffffffffffffffffffffffffffffffffffffffff1681526020019081526020016000205410610fb5576040517f08c379a0000000000000000000000000000000000000000000000000000000008152600401610fac90613080565b60405180910390fd5b6064600f5410610ffa576040517f08c379a0000000000000000000000000000000000000000000000000000000008152600401610ff190613112565b60405180910390fd5b60006110066007611c99565b9050600061101382610766565b9050600061102083610b86565b9050600061102d84610cea565b9050600083838360405160200161104693929190613132565b604051602081830303815290604052905060006110628661087e565b90506000600882600985600a6040516020016110829594939291906131fb565b604051602081830303815290604052905060006110c7846110a284611ca7565b6040516020016110b3929190613376565b604051602081830303815290604052611ca7565b90506000816040516020016110dc9190613407565b604051602081830303815290604052905061112b6040518060400160405280601581526020017f0a2d2d2d2d2d2d2d2d2d2d2d2d2d2d2d2d2d2d2d2d0000000000000000000000815250611317565b6111538160405160200161113f919061349b565b604051602081830303815290604052611317565b6111916040518060400160405280601581526020017f2d2d2d2d2d2d2d2d2d2d2d2d2d2d2d2d2d2d2d2d0a0000000000000000000000815250611317565b61119b338a611e1f565b6111a58982611e3d565b6111c8604051806060016040528060268152602001613eca602691398a33611eaa565b6111d26007611f49565b601060003373ffffffffffffffffffffffffffffffffffffffff1673ffffffffffffffffffffffffffffffffffffffff1681526020019081526020016000206000815480929190611222906134ec565b9190505550600f600081548092919061123a906134ec565b91905055507febb98688741ffa4c7589bf325de30cf7becb63de567842e1ccdb6cb949fdc82c338a604051611270929190613534565b60405180910390a1505050505050505050565b6000600560008473ffffffffffffffffffffffffffffffffffffffff1673ffffffffffffffffffffffffffffffffffffffff16815260200190815260200160002060008373ffffffffffffffffffffffffffffffffffffffff1673ffffffffffffffffffffffffffffffffffffffff16815260200190815260200160002060009054906101000a900460ff16905092915050565b6113ad8160405160240161132b91906124ae565b6040516020818303038152906040527f41304fac000000000000000000000000000000000000000000000000000000007bffffffffffffffffffffffffffffffffffffffffffffffffffffffff19166020820180517bffffffffffffffffffffffffffffffffffffffffffffffffffffffff8381831617835250505050611f5f565b50565b60007f01ffc9a7000000000000000000000000000000000000000000000000000000007bffffffffffffffffffffffffffffffffffffffffffffffffffffffff1916827bffffffffffffffffffffffffffffffffffffffffffffffffffffffff1916149050919050565b60008073ffffffffffffffffffffffffffffffffffffffff166002600084815260200190815260200160002060009054906101000a900473ffffffffffffffffffffffffffffffffffffffff1673ffffffffffffffffffffffffffffffffffffffff1614159050919050565b600033905090565b816004600083815260200190815260200160002060006101000a81548173ffffffffffffffffffffffffffffffffffffffff021916908373ffffffffffffffffffffffffffffffffffffffff160217905550808273ffffffffffffffffffffffffffffffffffffffff1661150183610976565b73ffffffffffffffffffffffffffffffffffffffff167f8c5be1e5ebec7d5bd14f71427d1e84f3dd0314c0f7b2291e5b200ac8c7c3b92560405160405180910390a45050565b60006115528261141a565b611591576040517f08c379a0000000000000000000000000000000000000000000000000000000008152600401611588906135cf565b60405180910390fd5b600061159c83610976565b90508073ffffffffffffffffffffffffffffffffffffffff168473ffffffffffffffffffffffffffffffffffffffff16148061160b57508373ffffffffffffffffffffffffffffffffffffffff166115f38461056a565b73ffffffffffffffffffffffffffffffffffffffff16145b8061161c575061161b8185611283565b5b91505092915050565b8273ffffffffffffffffffffffffffffffffffffffff1661164582610976565b73ffffffffffffffffffffffffffffffffffffffff161461169b576040517f08c379a000000000000000000000000000000000000000000000000000000000815260040161169290613661565b60405180910390fd5b600073ffffffffffffffffffffffffffffffffffffffff168273ffffffffffffffffffffffffffffffffffffffff160361170a576040517f08c379a0000000000000000000000000000000000000000000000000000000008152600401611701906136f3565b60405180910390fd5b611715838383611f88565b61172060008261148e565b6001600360008573ffffffffffffffffffffffffffffffffffffffff1673ffffffffffffffffffffffffffffffffffffffff16815260200190815260200160002060008282546117709190613713565b925050819055506001600360008473ffffffffffffffffffffffffffffffffffffffff1673ffffffffffffffffffffffffffffffffffffffff16815260200190815260200160002060008282546117c79190613747565b92505081905550816002600083815260200190815260200160002060006101000a81548173ffffffffffffffffffffffffffffffffffffffff021916908373ffffffffffffffffffffffffffffffffffffffff160217905550808273ffffffffffffffffffffffffffffffffffffffff168473ffffffffffffffffffffffffffffffffffffffff167fddf252ad1be2c89b69c2b068fc378daa952ba7f163c4a11628f55a4df523b3ef60405160405180910390a4505050565b6060600082036118c7576040518060400160405280600181526020017f300000000000000000000000000000000000000000000000000000000000000081525090506119db565b600082905060005b600082146118f95780806118e2906134ec565b915050600a826118f2919061377b565b91506118cf565b60008167ffffffffffffffff8111156119155761191461271b565b5b6040519080825280601f01601f1916602001820160405280156119475781602001600182028036833780820191505090505b5090505b600085146119d4576001826119609190613713565b9150600a8561196f9190612c8a565b603061197b9190613747565b60f81b81838151811061199157611990612cbb565b5b60200101907effffffffffffffffffffffffffffffffffffffffffffffffffffffffffffff1916908160001a905350600a856119cd919061377b565b945061194b565b8093505050505b919050565b6000816040516020016119f391906137ac565b6040516020818303038152906040528051906020012060001c9050919050565b8173ffffffffffffffffffffffffffffffffffffffff168373ffffffffffffffffffffffffffffffffffffffff1603611a81576040517f08c379a0000000000000000000000000000000000000000000000000000000008152600401611a789061380f565b60405180910390fd5b80600560008573ffffffffffffffffffffffffffffffffffffffff1673ffffffffffffffffffffffffffffffffffffffff16815260200190815260200160002060008473ffffffffffffffffffffffffffffffffffffffff1673ffffffffffffffffffffffffffffffffffffffff16815260200190815260200160002060006101000a81548160ff0219169083151502179055508173ffffffffffffffffffffffffffffffffffffffff168373ffffffffffffffffffffffffffffffffffffffff167f17307eab39ab6107e8899845ad3d59bd9653f200f220920489ca2b5937696c3183604051611b729190612403565b60405180910390a3505050565b611b8a848484611625565b611b9684848484611f8d565b611bd5576040517f08c379a0000000000000000000000000000000000000000000000000000000008152600401611bcc906138a1565b60405180910390fd5b50505050565b606060405180602001604052806000815250905090565b6060611bfd8261141a565b611c3c576040517f08c379a0000000000000000000000000000000000000000000000000000000008152600401611c3390613933565b60405180910390fd5b6000611c46611bdb565b90506000815111611c665760405180602001604052806000815250611c91565b80611c7084611880565b604051602001611c81929190612fea565b6040516020818303038152906040525b915050919050565b600081600001549050919050565b60606000825103611cc957604051806020016040528060008152509050611e1a565b6000604051806060016040528060408152602001613e8a6040913990506000600360028551611cf89190613747565b611d02919061377b565b6004611d0e9190613953565b90506000602082611d1f9190613747565b67ffffffffffffffff811115611d3857611d3761271b565b5b6040519080825280601f01601f191660200182016040528015611d6a5781602001600182028036833780820191505090505b509050818152600183018586518101602084015b81831015611dd9576003830192508251603f8160121c168501518253600182019150603f81600c1c168501518253600182019150603f8160061c168501518253600182019150603f8116850151825360018201915050611d7e565b600389510660018114611df35760028114611e0357611e0e565b613d3d60f01b6002830352611e0e565b603d60f81b60018303525b50505050508093505050505b919050565b611e39828260405180602001604052806000815250612114565b5050565b611e468261141a565b611e85576040517f08c379a0000000000000000000000000000000000000000000000000000000008152600401611e7c90613a07565b60405180910390fd5b80600660008481526020019081526020016000209081611ea59190613bbe565b505050565b611f44838383604051602401611ec293929190613c90565b6040516020818303038152906040527fe3849f79000000000000000000000000000000000000000000000000000000007bffffffffffffffffffffffffffffffffffffffffffffffffffffffff19166020820180517bffffffffffffffffffffffffffffffffffffffffffffffffffffffff8381831617835250505050611f5f565b505050565b6001816000016000828254019250508190555050565b60008151905060006a636f6e736f6c652e6c6f679050602083016000808483855afa5050505050565b505050565b6000611fae8473ffffffffffffffffffffffffffffffffffffffff1661216f565b15612107578373ffffffffffffffffffffffffffffffffffffffff1663150b7a02611fd7611486565b8786866040518563ffffffff1660e01b8152600401611ff99493929190613d23565b6020604051808303816000875af192505050801561203557506040513d601f19601f820116820180604052508101906120329190613d84565b60015b6120b7573d8060008114612065576040519150601f19603f3d011682016040523d82523d6000602084013e61206a565b606091505b5060008151036120af576040517f08c379a00000000000000000000000000000000000000000000000000000000081526004016120a6906138a1565b60405180910390fd5b805181602001fd5b63150b7a0260e01b7bffffffffffffffffffffffffffffffffffffffffffffffffffffffff1916817bffffffffffffffffffffffffffffffffffffffffffffffffffffffff19161491505061210c565b600190505b949350505050565b61211e8383612182565b61212b6000848484611f8d565b61216a576040517f08c379a0000000000000000000000000000000000000000000000000000000008152600401612161906138a1565b60405180910390fd5b505050565b600080823b905060008111915050919050565b600073ffffffffffffffffffffffffffffffffffffffff168273ffffffffffffffffffffffffffffffffffffffff16036121f1576040517f08c379a00000000000000000000000000000000000000000000000000000000081526004016121e890613dfd565b60405180910390fd5b6121fa8161141a565b1561223a576040517f08c379a000000000000000000000000000000000000000000000000000000000815260040161223190613e69565b60405180910390fd5b61224660008383611f88565b6001600360008473ffffffffffffffffffffffffffffffffffffffff1673ffffffffffffffffffffffffffffffffffffffff16815260200190815260200160002060008282546122969190613747565b92505081905550816002600083815260200190815260200160002060006101000a81548173ffffffffffffffffffffffffffffffffffffffff021916908373ffffffffffffffffffffffffffffffffffffffff160217905550808273ffffffffffffffffffffffffffffffffffffffff16600073ffffffffffffffffffffffffffffffffffffffff167fddf252ad1be2c89b69c2b068fc378daa952ba7f163c4a11628f55a4df523b3ef60405160405180910390a45050565b6000604051905090565b600080fd5b600080fd5b60007fffffffff0000000000000000000000000000000000000000000000000000000082169050919050565b61239881612363565b81146123a357600080fd5b50565b6000813590506123b58161238f565b92915050565b6000602082840312156123d1576123d0612359565b5b60006123df848285016123a6565b91505092915050565b60008115159050919050565b6123fd816123e8565b82525050565b600060208201905061241860008301846123f4565b92915050565b600081519050919050565b600082825260208201905092915050565b60005b8381101561245857808201518184015260208101905061243d565b60008484015250505050565b6000601f19601f8301169050919050565b60006124808261241e565b61248a8185612429565b935061249a81856020860161243a565b6124a381612464565b840191505092915050565b600060208201905081810360008301526124c88184612475565b905092915050565b6000819050919050565b6124e3816124d0565b81146124ee57600080fd5b50565b600081359050612500816124da565b92915050565b60006020828403121561251c5761251b612359565b5b600061252a848285016124f1565b91505092915050565b600073ffffffffffffffffffffffffffffffffffffffff82169050919050565b600061255e82612533565b9050919050565b61256e81612553565b82525050565b60006020820190506125896000830184612565565b92915050565b61259881612553565b81146125a357600080fd5b50565b6000813590506125b58161258f565b92915050565b600080604083850312156125d2576125d1612359565b5b60006125e0858286016125a6565b92505060206125f1858286016124f1565b9150509250929050565b60008060006060848603121561261457612613612359565b5b6000612622868287016125a6565b9350506020612633868287016125a6565b9250506040612644868287016124f1565b9150509250925092565b60006020828403121561266457612663612359565b5b6000612672848285016125a6565b91505092915050565b612684816124d0565b82525050565b600060208201905061269f600083018461267b565b92915050565b6126ae816123e8565b81146126b957600080fd5b50565b6000813590506126cb816126a5565b92915050565b600080604083850312156126e8576126e7612359565b5b60006126f6858286016125a6565b9250506020612707858286016126bc565b9150509250929050565b600080fd5b600080fd5b7f4e487b7100000000000000000000000000000000000000000000000000000000600052604160045260246000fd5b61275382612464565b810181811067ffffffffffffffff821117156127725761277161271b565b5b80604052505050565b600061278561234f565b9050612791828261274a565b919050565b600067ffffffffffffffff8211156127b1576127b061271b565b5b6127ba82612464565b9050602081019050919050565b82818337600083830152505050565b60006127e96127e484612796565b61277b565b90508281526020810184848401111561280557612804612716565b5b6128108482856127c7565b509392505050565b600082601f83011261282d5761282c612711565b5b813561283d8482602086016127d6565b91505092915050565b600080600080608085870312156128605761285f612359565b5b600061286e878288016125a6565b945050602061287f878288016125a6565b9350506040612890878288016124f1565b925050606085013567ffffffffffffffff8111156128b1576128b061235e565b5b6128bd87828801612818565b91505092959194509250565b600080604083850312156128e0576128df612359565b5b60006128ee858286016125a6565b92505060206128ff858286016125a6565b9150509250929050565b7f4e487b7100000000000000000000000000000000000000000000000000000000600052602260045260246000fd5b6000600282049050600182168061295057607f821691505b60208210810361296357612962612909565b5b50919050565b7f4552433732313a20617070726f76656420717565727920666f72206e6f6e657860008201527f697374656e7420746f6b656e0000000000000000000000000000000000000000602082015250565b60006129c5602c83612429565b91506129d082612969565b604082019050919050565b600060208201905081810360008301526129f4816129b8565b9050919050565b7f4552433732313a20617070726f76616c20746f2063757272656e74206f776e6560008201527f7200000000000000000000000000000000000000000000000000000000000000602082015250565b6000612a57602183612429565b9150612a62826129fb565b604082019050919050565b60006020820190508181036000830152612a8681612a4a565b9050919050565b7f4552433732313a20617070726f76652063616c6c6572206973206e6f74206f7760008201527f6e6572206e6f7220617070726f76656420666f7220616c6c0000000000000000602082015250565b6000612ae9603883612429565b9150612af482612a8d565b604082019050919050565b60006020820190508181036000830152612b1881612adc565b9050919050565b7f4552433732313a207472616e736665722063616c6c6572206973206e6f74206f60008201527f776e6572206e6f7220617070726f766564000000000000000000000000000000602082015250565b6000612b7b603183612429565b9150612b8682612b1f565b604082019050919050565b60006020820190508181036000830152612baa81612b6e565b9050919050565b600081905092915050565b7f46495253545f574f524400000000000000000000000000000000000000000000600082015250565b6000612bf2600a83612bb1565b9150612bfd82612bbc565b600a82019050919050565b6000612c138261241e565b612c1d8185612bb1565b9350612c2d81856020860161243a565b80840191505092915050565b6000612c4482612be5565b9150612c508284612c08565b915081905092915050565b7f4e487b7100000000000000000000000000000000000000000000000000000000600052601260045260246000fd5b6000612c95826124d0565b9150612ca0836124d0565b925082612cb057612caf612c5b565b5b828206905092915050565b7f4e487b7100000000000000000000000000000000000000000000000000000000600052603260045260246000fd5b7f434f4c4f55520000000000000000000000000000000000000000000000000000600082015250565b6000612d20600683612bb1565b9150612d2b82612cea565b600682019050919050565b6000612d4182612d13565b9150612d4d8284612c08565b915081905092915050565b7f4552433732313a206f776e657220717565727920666f72206e6f6e657869737460008201527f656e7420746f6b656e0000000000000000000000000000000000000000000000602082015250565b6000612db4602983612429565b9150612dbf82612d58565b604082019050919050565b60006020820190508181036000830152612de381612da7565b9050919050565b7f4552433732313a2062616c616e636520717565727920666f7220746865207a6560008201527f726f206164647265737300000000000000000000000000000000000000000000602082015250565b6000612e46602a83612429565b9150612e5182612dea565b604082019050919050565b60006020820190508181036000830152612e7581612e39565b9050919050565b7f5345434f4e445f574f5244000000000000000000000000000000000000000000600082015250565b6000612eb2600b83612bb1565b9150612ebd82612e7c565b600b82019050919050565b6000612ed382612ea5565b9150612edf8284612c08565b915081905092915050565b7f54484952445f574f524400000000000000000000000000000000000000000000600082015250565b6000612f20600a83612bb1565b9150612f2b82612eea565b600a82019050919050565b6000612f4182612f13565b9150612f4d8284612c08565b915081905092915050565b7f45524337323155524953746f726167653a2055524920717565727920666f722060008201527f6e6f6e6578697374656e7420746f6b656e000000000000000000000000000000602082015250565b6000612fb4603183612429565b9150612fbf82612f58565b604082019050919050565b60006020820190508181036000830152612fe381612fa7565b9050919050565b6000612ff68285612c08565b91506130028284612c08565b91508190509392505050565b7f55736572732063616e206f6e6c79206d696e7420757020746f2074687265652060008201527f4e46545320656163682e00000000000000000000000000000000000000000000602082015250565b600061306a602a83612429565b91506130758261300e565b604082019050919050565b600060208201905081810360008301526130998161305d565b9050919050565b7f536f6c64206f75742120416c6c20313030204e4654532068617665206265656e60008201527f206d696e7465642e000000000000000000000000000000000000000000000000602082015250565b60006130fc602883612429565b9150613107826130a0565b604082019050919050565b6000602082019050818103600083015261312b816130ef565b9050919050565b600061313e8286612c08565b915061314a8285612c08565b91506131568284612c08565b9150819050949350505050565b60008190508160005260206000209050919050565b6000815461318581612938565b61318f8186612bb1565b945060018216600081146131aa57600181146131bf576131f2565b60ff19831686528115158202860193506131f2565b6131c885613163565b60005b838110156131ea578154818901526001820191506020810190506131cb565b838801955050505b50505092915050565b60006132078288613178565b91506132138287612c08565b915061321f8286613178565b915061322b8285612c08565b91506132378284613178565b91508190509695505050505050565b7f7b226e616d65223a202200000000000000000000000000000000000000000000600082015250565b600061327c600a83612bb1565b915061328782613246565b600a82019050919050565b7f222c20226465736372697074696f6e223a20225761636b6f20576f726473204e60008201527f4654222c2022696d616765223a2022646174613a696d6167652f7376672b786d60208201527f6c3b6261736536342c0000000000000000000000000000000000000000000000604082015250565b6000613314604983612bb1565b915061331f82613292565b604982019050919050565b7f227d000000000000000000000000000000000000000000000000000000000000600082015250565b6000613360600283612bb1565b915061336b8261332a565b600282019050919050565b60006133818261326f565b915061338d8285612c08565b915061339882613307565b91506133a48284612c08565b91506133af82613353565b91508190509392505050565b7f646174613a6170706c69636174696f6e2f6a736f6e3b6261736536342c000000600082015250565b60006133f1601d83612bb1565b91506133fc826133bb565b601d82019050919050565b6000613412826133e4565b915061341e8284612c08565b915081905092915050565b7f68747470733a2f2f6e6674707265766965772e30786465762e636f6465732f3f60008201527f636f64653d000000000000000000000000000000000000000000000000000000602082015250565b6000613485602583612bb1565b915061349082613429565b602582019050919050565b60006134a682613478565b91506134b28284612c08565b915081905092915050565b7f4e487b7100000000000000000000000000000000000000000000000000000000600052601160045260246000fd5b60006134f7826124d0565b91507fffffffffffffffffffffffffffffffffffffffffffffffffffffffffffffffff8203613529576135286134bd565b5b600182019050919050565b60006040820190506135496000830185612565565b613556602083018461267b565b9392505050565b7f4552433732313a206f70657261746f7220717565727920666f72206e6f6e657860008201527f697374656e7420746f6b656e0000000000000000000000000000000000000000602082015250565b60006135b9602c83612429565b91506135c48261355d565b604082019050919050565b600060208201905081810360008301526135e8816135ac565b9050919050565b7f4552433732313a207472616e73666572206f6620746f6b656e2074686174206960008201527f73206e6f74206f776e0000000000000000000000000000000000000000000000602082015250565b600061364b602983612429565b9150613656826135ef565b604082019050919050565b6000602082019050818103600083015261367a8161363e565b9050919050565b7f4552433732313a207472616e7366657220746f20746865207a65726f2061646460008201527f7265737300000000000000000000000000000000000000000000000000000000602082015250565b60006136dd602483612429565b91506136e882613681565b604082019050919050565b6000602082019050818103600083015261370c816136d0565b9050919050565b600061371e826124d0565b9150613729836124d0565b9250828203905081811115613741576137406134bd565b5b92915050565b6000613752826124d0565b915061375d836124d0565b9250828201905080821115613775576137746134bd565b5b92915050565b6000613786826124d0565b9150613791836124d0565b9250826137a1576137a0612c5b565b5b828204905092915050565b60006137b88284612c08565b915081905092915050565b7f4552433732313a20617070726f766520746f2063616c6c657200000000000000600082015250565b60006137f9601983612429565b9150613804826137c3565b602082019050919050565b60006020820190508181036000830152613828816137ec565b9050919050565b7f4552433732313a207472616e7366657220746f206e6f6e20455243373231526560008201527f63656976657220696d706c656d656e7465720000000000000000000000000000602082015250565b600061388b603283612429565b91506138968261382f565b604082019050919050565b600060208201905081810360008301526138ba8161387e565b9050919050565b7f4552433732314d657461646174613a2055524920717565727920666f72206e6f60008201527f6e6578697374656e7420746f6b656e0000000000000000000000000000000000602082015250565b600061391d602f83612429565b9150613928826138c1565b604082019050919050565b6000602082019050818103600083015261394c81613910565b9050919050565b600061395e826124d0565b9150613969836124d0565b9250828202613977816124d0565b9150828204841483151761398e5761398d6134bd565b5b5092915050565b7f45524337323155524953746f726167653a2055524920736574206f66206e6f6e60008201527f6578697374656e7420746f6b656e000000000000000000000000000000000000602082015250565b60006139f1602e83612429565b91506139fc82613995565b604082019050919050565b60006020820190508181036000830152613a20816139e4565b9050919050565b60006020601f8301049050919050565b600082821b905092915050565b600060088302613a747fffffffffffffffffffffffffffffffffffffffffffffffffffffffffffffffff82613a37565b613a7e8683613a37565b95508019841693508086168417925050509392505050565b6000819050919050565b6000613abb613ab6613ab1846124d0565b613a96565b6124d0565b9050919050565b6000819050919050565b613ad583613aa0565b613ae9613ae182613ac2565b848454613a44565b825550505050565b600090565b613afe613af1565b613b09818484613acc565b505050565b5b81811015613b2d57613b22600082613af6565b600181019050613b0f565b5050565b601f821115613b7257613b4381613163565b613b4c84613a27565b81016020851015613b5b578190505b613b6f613b6785613a27565b830182613b0e565b50505b505050565b600082821c905092915050565b6000613b9560001984600802613b77565b1980831691505092915050565b6000613bae8383613b84565b9150826002028217905092915050565b613bc78261241e565b67ffffffffffffffff811115613be057613bdf61271b565b5b613bea8254612938565b613bf5828285613b31565b600060209050601f831160018114613c285760008415613c16578287015190505b613c208582613ba2565b865550613c88565b601f198416613c3686613163565b60005b82811015613c5e57848901518255600182019150602085019450602081019050613c39565b86831015613c7b5784890151613c77601f891682613b84565b8355505b6001600288020188555050505b505050505050565b60006060820190508181036000830152613caa8186612475565b9050613cb9602083018561267b565b613cc66040830184612565565b949350505050565b600081519050919050565b600082825260208201905092915050565b6000613cf582613cce565b613cff8185613cd9565b9350613d0f81856020860161243a565b613d1881612464565b840191505092915050565b6000608082019050613d386000830187612565565b613d456020830186612565565b613d52604083018561267b565b8181036060830152613d648184613cea565b905095945050505050565b600081519050613d7e8161238f565b92915050565b600060208284031215613d9a57613d99612359565b5b6000613da884828501613d6f565b91505092915050565b7f4552433732313a206d696e7420746f20746865207a65726f2061646472657373600082015250565b6000613de7602083612429565b9150613df282613db1565b602082019050919050565b60006020820190508181036000830152613e1681613dda565b9050919050565b7f4552433732313a20746f6b656e20616c7265616479206d696e74656400000000600082015250565b6000613e53601c83612429565b9150613e5e82613e1d565b602082019050919050565b60006020820190508181036000830152613e8281613e46565b905091905056fe4142434445464748494a4b4c4d4e4f505152535455565758595a6162636465666768696a6b6c6d6e6f707172737475767778797a303132333435363738392b2f416e204e465420772f20494420257320686173206265656e206d696e74656420666f72202573a264697066735822122025eb5b01bde7ac96de5a02853fd58d1afaf6bd12e5cf539f0a0c119b55d1734964736f6c634300081100333c73766720786d6c6e733d27687474703a2f2f7777772e77332e6f72672f323030302f73766727207072657365727665417370656374526174696f3d27784d696e594d696e206d656574272076696577426f783d273020302033353020333530273e3c7374796c653e2e62617365207b2066696c6c3a2077686974653b20666f6e742d66616d696c793a20427275736820536372697074204d543b20666f6e742d73697a653a20333070783b2020746578742d736861646f773a203020323070782035707820626c61636b3b7d3c2f7374796c653e3c726563742077696474683d273130302527206865696768743d2731303025272066696c6c3d27272f3e3c7465787420783d273530252720793d273530252720636c6173733d27626173652720646f6d696e616e742d626173656c696e653d276d6964646c652720746578742d616e63686f723d276d6964646c65273e",
  "linkReferences": {},
  "deployedLinkReferences": {}
}