{
  "_format": "hh-sol-artifact-1",
  "contractName": "WackoWordsNFT",
  "sourceName": "contracts/WackoWordsNFT.sol",
  "abi": [
    {
      "inputs": [],
      "stateMutability": "nonpayable",
      "type": "constructor"
    },
    {
      "anonymous": false,
      "inputs": [
        {
          "indexed": true,
          "internalType": "address",
          "name": "owner",
          "type": "address"
        },
        {
          "indexed": true,
          "internalType": "address",
          "name": "approved",
          "type": "address"
        },
        {
          "indexed": true,
          "internalType": "uint256",
          "name": "tokenId",
          "type": "uint256"
        }
      ],
      "name": "Approval",
      "type": "event"
    },
    {
      "anonymous": false,
      "inputs": [
        {
          "indexed": true,
          "internalType": "address",
          "name": "owner",
          "type": "address"
        },
        {
          "indexed": true,
          "internalType": "address",
          "name": "operator",
          "type": "address"
        },
        {
          "indexed": false,
          "internalType": "bool",
          "name": "approved",
          "type": "bool"
        }
      ],
      "name": "ApprovalForAll",
      "type": "event"
    },
    {
      "anonymous": false,
      "inputs": [
        {
          "indexed": false,
          "internalType": "address",
          "name": "sender",
          "type": "address"
        },
        {
          "indexed": false,
          "internalType": "uint256",
          "name": "tokenId",
          "type": "uint256"
        }
      ],
      "name": "NewEpicNFTMinted",
      "type": "event"
    },
    {
      "anonymous": false,
      "inputs": [
        {
          "indexed": true,
          "internalType": "address",
          "name": "from",
          "type": "address"
        },
        {
          "indexed": true,
          "internalType": "address",
          "name": "to",
          "type": "address"
        },
        {
          "indexed": true,
          "internalType": "uint256",
          "name": "tokenId",
          "type": "uint256"
        }
      ],
      "name": "Transfer",
      "type": "event"
    },
    {
      "inputs": [
        {
          "internalType": "address",
          "name": "to",
          "type": "address"
        },
        {
          "internalType": "uint256",
          "name": "tokenId",
          "type": "uint256"
        }
      ],
      "name": "approve",
      "outputs": [],
      "stateMutability": "nonpayable",
      "type": "function"
    },
    {
      "inputs": [
        {
          "internalType": "address",
          "name": "owner",
          "type": "address"
        }
      ],
      "name": "balanceOf",
      "outputs": [
        {
          "internalType": "uint256",
          "name": "",
          "type": "uint256"
        }
      ],
      "stateMutability": "view",
      "type": "function"
    },
    {
      "inputs": [
        {
          "internalType": "uint256",
          "name": "tokenId",
          "type": "uint256"
        }
      ],
      "name": "getApproved",
      "outputs": [
        {
          "internalType": "address",
          "name": "",
          "type": "address"
        }
      ],
      "stateMutability": "view",
      "type": "function"
    },
    {
      "inputs": [],
      "name": "getTotalNFTCount",
      "outputs": [
        {
          "internalType": "uint256",
          "name": "",
          "type": "uint256"
        }
      ],
      "stateMutability": "view",
      "type": "function"
    },
    {
      "inputs": [
        {
          "internalType": "address",
          "name": "owner",
          "type": "address"
        },
        {
          "internalType": "address",
          "name": "operator",
          "type": "address"
        }
      ],
      "name": "isApprovedForAll",
      "outputs": [
        {
          "internalType": "bool",
          "name": "",
          "type": "bool"
        }
      ],
      "stateMutability": "view",
      "type": "function"
    },
    {
      "inputs": [],
      "name": "makeAnEpicNFT",
      "outputs": [],
      "stateMutability": "nonpayable",
      "type": "function"
    },
    {
      "inputs": [],
      "name": "name",
      "outputs": [
        {
          "internalType": "string",
          "name": "",
          "type": "string"
        }
      ],
      "stateMutability": "view",
      "type": "function"
    },
    {
      "inputs": [
        {
          "internalType": "uint256",
          "name": "tokenId",
          "type": "uint256"
        }
      ],
      "name": "ownerOf",
      "outputs": [
        {
          "internalType": "address",
          "name": "",
          "type": "address"
        }
      ],
      "stateMutability": "view",
      "type": "function"
    },
    {
      "inputs": [
        {
          "internalType": "uint256",
          "name": "tokenId",
          "type": "uint256"
        }
      ],
      "name": "pickRandomColor",
      "outputs": [
        {
          "internalType": "string",
          "name": "",
          "type": "string"
        }
      ],
      "stateMutability": "view",
      "type": "function"
    },
    {
      "inputs": [
        {
          "internalType": "uint256",
          "name": "tokenId",
          "type": "uint256"
        }
      ],
      "name": "pickRandomFirstWord",
      "outputs": [
        {
          "internalType": "string",
          "name": "",
          "type": "string"
        }
      ],
      "stateMutability": "view",
      "type": "function"
    },
    {
      "inputs": [
        {
          "internalType": "uint256",
          "name": "tokenId",
          "type": "uint256"
        }
      ],
      "name": "pickRandomSecondWord",
      "outputs": [
        {
          "internalType": "string",
          "name": "",
          "type": "string"
        }
      ],
      "stateMutability": "view",
      "type": "function"
    },
    {
      "inputs": [
        {
          "internalType": "uint256",
          "name": "tokenId",
          "type": "uint256"
        }
      ],
      "name": "pickRandomThirdWord",
      "outputs": [
        {
          "internalType": "string",
          "name": "",
          "type": "string"
        }
      ],
      "stateMutability": "view",
      "type": "function"
    },
    {
      "inputs": [
        {
          "internalType": "address",
          "name": "from",
          "type": "address"
        },
        {
          "internalType": "address",
          "name": "to",
          "type": "address"
        },
        {
          "internalType": "uint256",
          "name": "tokenId",
          "type": "uint256"
        }
      ],
      "name": "safeTransferFrom",
      "outputs": [],
      "stateMutability": "nonpayable",
      "type": "function"
    },
    {
      "inputs": [
        {
          "internalType": "address",
          "name": "from",
          "type": "address"
        },
        {
          "internalType": "address",
          "name": "to",
          "type": "address"
        },
        {
          "internalType": "uint256",
          "name": "tokenId",
          "type": "uint256"
        },
        {
          "internalType": "bytes",
          "name": "_data",
          "type": "bytes"
        }
      ],
      "name": "safeTransferFrom",
      "outputs": [],
      "stateMutability": "nonpayable",
      "type": "function"
    },
    {
      "inputs": [
        {
          "internalType": "address",
          "name": "operator",
          "type": "address"
        },
        {
          "internalType": "bool",
          "name": "approved",
          "type": "bool"
        }
      ],
      "name": "setApprovalForAll",
      "outputs": [],
      "stateMutability": "nonpayable",
      "type": "function"
    },
    {
      "inputs": [
        {
          "internalType": "bytes4",
          "name": "interfaceId",
          "type": "bytes4"
        }
      ],
      "name": "supportsInterface",
      "outputs": [
        {
          "internalType": "bool",
          "name": "",
          "type": "bool"
        }
      ],
      "stateMutability": "view",
      "type": "function"
    },
    {
      "inputs": [],
      "name": "symbol",
      "outputs": [
        {
          "internalType": "string",
          "name": "",
          "type": "string"
        }
      ],
      "stateMutability": "view",
      "type": "function"
    },
    {
      "inputs": [
        {
          "internalType": "uint256",
          "name": "tokenId",
          "type": "uint256"
        }
      ],
      "name": "tokenURI",
      "outputs": [
        {
          "internalType": "string",
          "name": "",
          "type": "string"
        }
      ],
      "stateMutability": "view",
      "type": "function"
    },
    {
      "inputs": [
        {
          "internalType": "address",
          "name": "from",
          "type": "address"
        },
        {
          "internalType": "address",
          "name": "to",
          "type": "address"
        },
        {
          "internalType": "uint256",
          "name": "tokenId",
          "type": "uint256"
        }
      ],
      "name": "transferFrom",
      "outputs": [],
      "stateMutability": "nonpayable",
      "type": "function"
    }
  ],
  "bytecode": "0x608060405260405180610120016040528060fc81526020016200536960fc9139600890805190602001906200003692919062001353565b506040518060800160405280605681526020016200546560569139600990805190602001906200006892919062001353565b506040518060400160405280600d81526020017f3c2f746578743e3c2f7376673e00000000000000000000000000000000000000815250600a9080519060200190620000b692919062001353565b506040518061028001604052806040518060400160405280600781526020017f416972706f72740000000000000000000000000000000000000000000000000081525081526020016040518060400160405280600481526020017f506f72740000000000000000000000000000000000000000000000000000000081525081526020016040518060400160405280600781526020017f48656c697061640000000000000000000000000000000000000000000000000081525081526020016040518060400160405280600681526020017f476172616765000000000000000000000000000000000000000000000000000081525081526020016040518060400160405280600781526020017f53746174696f6e0000000000000000000000000000000000000000000000000081525081526020016040518060400160405280600481526020017f53746f700000000000000000000000000000000000000000000000000000000081525081526020016040518060400160405280600481526020017f596172640000000000000000000000000000000000000000000000000000000081525081526020016040518060400160405280600481526020017f446f636b0000000000000000000000000000000000000000000000000000000081525081526020016040518060400160405280600581526020017f4172656e6100000000000000000000000000000000000000000000000000000081525081526020016040518060400160405280600481526020017f52696e670000000000000000000000000000000000000000000000000000000081525081526020016040518060400160405280600581526020017f537472697000000000000000000000000000000000000000000000000000000081525081526020016040518060400160405280600681526020017f52756e776179000000000000000000000000000000000000000000000000000081525081526020016040518060400160405280600881526020017f447269766577617900000000000000000000000000000000000000000000000081525081526020016040518060400160405280600581526020017f4465706f7400000000000000000000000000000000000000000000000000000081525081526020016040518060400160405280600881526020017f5465726d696e616c00000000000000000000000000000000000000000000000081525081526020016040518060400160405280600481526020017f4c616e650000000000000000000000000000000000000000000000000000000081525081526020016040518060400160405280600481526020017f5a6f6e650000000000000000000000000000000000000000000000000000000081525081526020016040518060400160405280600881526020017f416972737472697000000000000000000000000000000000000000000000000081525081526020016040518060400160405280600881526020017f48656c69706f727400000000000000000000000000000000000000000000000081525081526020016040518060400160405280600481526020017f5175617900000000000000000000000000000000000000000000000000000000815250815250600b9060146200056f929190620013e4565b506040518061028001604052806040518060400160405280600581526020017f536b69727400000000000000000000000000000000000000000000000000000081525081526020016040518060400160405280600581526020017f536869727400000000000000000000000000000000000000000000000000000081525081526020016040518060400160405280600681526020017f426c6f757365000000000000000000000000000000000000000000000000000081525081526020016040518060400160405280600781526020017f537765617465720000000000000000000000000000000000000000000000000081525081526020016040518060400160405280600881526020017f54726f757365727300000000000000000000000000000000000000000000000081525081526020016040518060400160405280600581526020017f50616e747300000000000000000000000000000000000000000000000000000081525081526020016040518060400160405280600881526020017f4b6e69636b65727300000000000000000000000000000000000000000000000081525081526020016040518060400160405280600381526020017f427261000000000000000000000000000000000000000000000000000000000081525081526020016040518060400160405280600681526020017f53686f727473000000000000000000000000000000000000000000000000000081525081526020016040518060400160405280600581526020017f4a65616e7300000000000000000000000000000000000000000000000000000081525081526020016040518060400160405280600681526020017f546967687473000000000000000000000000000000000000000000000000000081525081526020016040518060400160405280600881526020017f4c656767696e677300000000000000000000000000000000000000000000000081525081526020016040518060400160405280600581526020017f536f636b7300000000000000000000000000000000000000000000000000000081525081526020016040518060400160405280600381526020017f486174000000000000000000000000000000000000000000000000000000000081525081526020016040518060400160405280600581526020017f536361726600000000000000000000000000000000000000000000000000000081525081526020016040518060400160405280600681526020017f476c6f766573000000000000000000000000000000000000000000000000000081525081526020016040518060400160405280600781526020017f542d73686972740000000000000000000000000000000000000000000000000081525081526020016040518060400160405280600681526020017f506f6e63686f000000000000000000000000000000000000000000000000000081525081526020016040518060400160405280600481526020017f436f61740000000000000000000000000000000000000000000000000000000081525081526020016040518060400160405280600681526020017f4a61636b65740000000000000000000000000000000000000000000000000000815250815250600c90601462000a28929190620013e4565b506040518061028001604052806040518060400160405280600981526020017f537061676865747469000000000000000000000000000000000000000000000081525081526020016040518060400160405280600581526020017f50697a7a6100000000000000000000000000000000000000000000000000000081525081526020016040518060400160405280600381526020017f48616d000000000000000000000000000000000000000000000000000000000081525081526020016040518060400160405280600481526020017f466973680000000000000000000000000000000000000000000000000000000081525081526020016040518060400160405280600581526020017f537465616b00000000000000000000000000000000000000000000000000000081525081526020016040518060400160405280600781526020017f436869636b656e0000000000000000000000000000000000000000000000000081525081526020016040518060400160405280600581526020017f4170706c6500000000000000000000000000000000000000000000000000000081525081526020016040518060400160405280600581526020017f4f6c69766500000000000000000000000000000000000000000000000000000081525081526020016040518060400160405280600981526020017f50697374616368696f000000000000000000000000000000000000000000000081525081526020016040518060400160405280600681526020017f436865657365000000000000000000000000000000000000000000000000000081525081526020016040518060400160405280600781526020017f596f67687572740000000000000000000000000000000000000000000000000081525081526020016040518060400160405280600981526020017f50696e656170706c65000000000000000000000000000000000000000000000081525081526020016040518060400160405280600781526020017f4275727269746f0000000000000000000000000000000000000000000000000081525081526020016040518060400160405280600981526020017f43686f636f6c617465000000000000000000000000000000000000000000000081525081526020016040518060400160405280600481526020017f4c616d620000000000000000000000000000000000000000000000000000000081525081526020016040518060400160405280600481526020017f536f75700000000000000000000000000000000000000000000000000000000081525081526020016040518060400160405280600681526020017f506f7461746f000000000000000000000000000000000000000000000000000081525081526020016040518060400160405280600681526020017f546f6d61746f000000000000000000000000000000000000000000000000000081525081526020016040518060400160405280600681526020017f43656c657279000000000000000000000000000000000000000000000000000081525081526020016040518060400160405280600681526020017f4361766961720000000000000000000000000000000000000000000000000000815250815250600d90601462000ee1929190620013e4565b506040518061016001604052806040518060400160405280600781526020017f233636666666660000000000000000000000000000000000000000000000000081525081526020016040518060400160405280600781526020017f233636666636360000000000000000000000000000000000000000000000000081525081526020016040518060400160405280600781526020017f233333383566660000000000000000000000000000000000000000000000000081525081526020016040518060400160405280600781526020017f236666333363630000000000000000000000000000000000000000000000000081525081526020016040518060400160405280600781526020017f236666316131610000000000000000000000000000000000000000000000000081525081526020016040518060400160405280600781526020017f236666393930300000000000000000000000000000000000000000000000000081525081526020016040518060400160405280600781526020017f233939333366660000000000000000000000000000000000000000000000000081525081526020016040518060400160405280600781526020017f233830303038300000000000000000000000000000000000000000000000000081525081526020016040518060400160405280600781526020017f233735373561330000000000000000000000000000000000000000000000000081525081526020016040518060400160405280600781526020017f236266343034300000000000000000000000000000000000000000000000000081525081526020016040518060400160405280600781526020017f2366663830626600000000000000000000000000000000000000000000000000815250815250600e90600b620011879291906200144b565b503480156200119557600080fd5b506040518060400160405280600f81526020017f5761636b6f20576f726473204e465400000000000000000000000000000000008152506040518060400160405280600281526020017f575700000000000000000000000000000000000000000000000000000000000081525081600090805190602001906200121a92919062001353565b5080600190805190602001906200123392919062001353565b505050620012816040518060400160405280601e81526020017f54686973206973206d79204e465420636f6e74726163742e2057686f612100008152506200128760201b620013b31760201c565b6200166c565b62001327816040516024016200129e919062001580565b6040516020818303038152906040527f41304fac000000000000000000000000000000000000000000000000000000007bffffffffffffffffffffffffffffffffffffffffffffffffffffffff19166020820180517bffffffffffffffffffffffffffffffffffffffffffffffffffffffff83818316178352505050506200132a60201b60201c565b50565b60008151905060006a636f6e736f6c652e6c6f679050602083016000808483855afa5050505050565b8280546200136190620015f6565b90600052602060002090601f016020900481019282620013855760008555620013d1565b82601f10620013a057805160ff1916838001178555620013d1565b82800160010185558215620013d1579182015b82811115620013d0578251825591602001919060010190620013b3565b5b509050620013e09190620014b2565b5090565b82805482825590600052602060002090810192821562001438579160200282015b82811115620014375782518290805190602001906200142692919062001353565b509160200191906001019062001405565b5b509050620014479190620014d1565b5090565b8280548282559060005260206000209081019282156200149f579160200282015b828111156200149e5782518290805190602001906200148d92919062001353565b50916020019190600101906200146c565b5b509050620014ae9190620014d1565b5090565b5b80821115620014cd576000816000905550600101620014b3565b5090565b5b80821115620014f55760008181620014eb9190620014f9565b50600101620014d2565b5090565b5080546200150790620015f6565b6000825580601f106200151b57506200153c565b601f0160209004906000526020600020908101906200153b9190620014b2565b5b50565b60006200154c82620015a4565b620015588185620015af565b93506200156a818560208601620015c0565b62001575816200165b565b840191505092915050565b600060208201905081810360008301526200159c81846200153f565b905092915050565b600081519050919050565b600082825260208201905092915050565b60005b83811015620015e0578082015181840152602081019050620015c3565b83811115620015f0576000848401525b50505050565b600060028204905060018216806200160f57607f821691505b602082108114156200162657620016256200162c565b5b50919050565b7f4e487b7100000000000000000000000000000000000000000000000000000000600052602260045260246000fd5b6000601f19601f8301169050919050565b613ced806200167c6000396000f3fe608060405234801561001057600080fd5b50600436106101215760003560e01c806370a08231116100ad578063bc50c9c111610071578063bc50c9c11461033e578063c575757a1461035c578063c87b56dd1461038c578063de9d132f146103bc578063e985e9c5146103c657610121565b806370a082311461028857806395d89b41146102b8578063a22cb465146102d6578063b187301f146102f2578063b88d4fde1461032257610121565b806323b872dd116100f457806323b872dd146101c05780632de38d68146101dc57806342842e0e1461020c578063514dc8c6146102285780636352211e1461025857610121565b806301ffc9a71461012657806306fdde0314610156578063081812fc14610174578063095ea7b3146101a4575b600080fd5b610140600480360381019061013b9190612794565b6103f6565b60405161014d9190613522565b60405180910390f35b61015e6104d8565b60405161016b919061353d565b60405180910390f35b61018e600480360381019061018991906127e6565b61056a565b60405161019b9190613492565b60405180910390f35b6101be60048036038101906101b99190612758565b6105ef565b005b6101da60048036038101906101d59190612652565b610707565b005b6101f660048036038101906101f191906127e6565b610767565b604051610203919061353d565b60405180910390f35b61022660048036038101906102219190612652565b610885565b005b610242600480360381019061023d91906127e6565b6108a5565b60405161024f919061353d565b60405180910390f35b610272600480360381019061026d91906127e6565b6109c3565b60405161027f9190613492565b60405180910390f35b6102a2600480360381019061029d91906125ed565b610a75565b6040516102af91906137dd565b60405180910390f35b6102c0610b2d565b6040516102cd919061353d565b60405180910390f35b6102f060048036038101906102eb919061271c565b610bbf565b005b61030c600480360381019061030791906127e6565b610bd5565b604051610319919061353d565b60405180910390f35b61033c600480360381019061033791906126a1565b610cf3565b005b610346610d55565b60405161035391906137dd565b60405180910390f35b610376600480360381019061037191906127e6565b610d5f565b604051610383919061353d565b60405180910390f35b6103a660048036038101906103a191906127e6565b610e7d565b6040516103b3919061353d565b60405180910390f35b6103c4610fcf565b005b6103e060048036038101906103db9190612616565b61131f565b6040516103ed9190613522565b60405180910390f35b60007f80ac58cd000000000000000000000000000000000000000000000000000000007bffffffffffffffffffffffffffffffffffffffffffffffffffffffff1916827bffffffffffffffffffffffffffffffffffffffffffffffffffffffff191614806104c157507f5b5e139f000000000000000000000000000000000000000000000000000000007bffffffffffffffffffffffffffffffffffffffffffffffffffffffff1916827bffffffffffffffffffffffffffffffffffffffffffffffffffffffff1916145b806104d157506104d08261144c565b5b9050919050565b6060600080546104e790613a7c565b80601f016020809104026020016040519081016040528092919081815260200182805461051390613a7c565b80156105605780601f1061053557610100808354040283529160200191610560565b820191906000526020600020905b81548152906001019060200180831161054357829003601f168201915b5050505050905090565b6000610575826114b6565b6105b4576040517f08c379a00000000000000000000000000000000000000000000000000000000081526004016105ab9061371d565b60405180910390fd5b6004600083815260200190815260200160002060009054906101000a900473ffffffffffffffffffffffffffffffffffffffff169050919050565b60006105fa826109c3565b90508073ffffffffffffffffffffffffffffffffffffffff168373ffffffffffffffffffffffffffffffffffffffff16141561066b576040517f08c379a00000000000000000000000000000000000000000000000000000000081526004016106629061377d565b60405180910390fd5b8073ffffffffffffffffffffffffffffffffffffffff1661068a611522565b73ffffffffffffffffffffffffffffffffffffffff1614806106b957506106b8816106b3611522565b61131f565b5b6106f8576040517f08c379a00000000000000000000000000000000000000000000000000000000081526004016106ef9061365d565b60405180910390fd5b610702838361152a565b505050565b610718610712611522565b826115e3565b610757576040517f08c379a000000000000000000000000000000000000000000000000000000000815260040161074e9061379d565b60405180910390fd5b6107628383836116c1565b505050565b6060600061079b6107778461191d565b604051602001610787919061342c565b604051602081830303815290604052611aca565b9050600b80549050816107ae9190613af7565b9050600b81815481106107ea577f4e487b7100000000000000000000000000000000000000000000000000000000600052603260045260246000fd5b9060005260206000200180546107ff90613a7c565b80601f016020809104026020016040519081016040528092919081815260200182805461082b90613a7c565b80156108785780601f1061084d57610100808354040283529160200191610878565b820191906000526020600020905b81548152906001019060200180831161085b57829003601f168201915b5050505050915050919050565b6108a083838360405180602001604052806000815250610cf3565b505050565b606060006108d96108b58461191d565b6040516020016108c59190613470565b604051602081830303815290604052611aca565b9050600e80549050816108ec9190613af7565b9050600e8181548110610928577f4e487b7100000000000000000000000000000000000000000000000000000000600052603260045260246000fd5b90600052602060002001805461093d90613a7c565b80601f016020809104026020016040519081016040528092919081815260200182805461096990613a7c565b80156109b65780601f1061098b576101008083540402835291602001916109b6565b820191906000526020600020905b81548152906001019060200180831161099957829003601f168201915b5050505050915050919050565b6000806002600084815260200190815260200160002060009054906101000a900473ffffffffffffffffffffffffffffffffffffffff169050600073ffffffffffffffffffffffffffffffffffffffff168173ffffffffffffffffffffffffffffffffffffffff161415610a6c576040517f08c379a0000000000000000000000000000000000000000000000000000000008152600401610a639061369d565b60405180910390fd5b80915050919050565b60008073ffffffffffffffffffffffffffffffffffffffff168273ffffffffffffffffffffffffffffffffffffffff161415610ae6576040517f08c379a0000000000000000000000000000000000000000000000000000000008152600401610add9061367d565b60405180910390fd5b600360008373ffffffffffffffffffffffffffffffffffffffff1673ffffffffffffffffffffffffffffffffffffffff168152602001908152602001600020549050919050565b606060018054610b3c90613a7c565b80601f0160208091040260200160405190810160405280929190818152602001828054610b6890613a7c565b8015610bb55780601f10610b8a57610100808354040283529160200191610bb5565b820191906000526020600020905b815481529060010190602001808311610b9857829003601f168201915b5050505050905090565b610bd1610bca611522565b8383611afd565b5050565b60606000610c09610be58461191d565b604051602001610bf591906133c5565b604051602081830303815290604052611aca565b9050600c8054905081610c1c9190613af7565b9050600c8181548110610c58577f4e487b7100000000000000000000000000000000000000000000000000000000600052603260045260246000fd5b906000526020600020018054610c6d90613a7c565b80601f0160208091040260200160405190810160405280929190818152602001828054610c9990613a7c565b8015610ce65780601f10610cbb57610100808354040283529160200191610ce6565b820191906000526020600020905b815481529060010190602001808311610cc957829003601f168201915b5050505050915050919050565b610d04610cfe611522565b836115e3565b610d43576040517f08c379a0000000000000000000000000000000000000000000000000000000008152600401610d3a9061379d565b60405180910390fd5b610d4f84848484611c6a565b50505050565b6000600f54905090565b60606000610d93610d6f8461191d565b604051602001610d7f91906133a3565b604051602081830303815290604052611aca565b9050600d8054905081610da69190613af7565b9050600d8181548110610de2577f4e487b7100000000000000000000000000000000000000000000000000000000600052603260045260246000fd5b906000526020600020018054610df790613a7c565b80601f0160208091040260200160405190810160405280929190818152602001828054610e2390613a7c565b8015610e705780601f10610e4557610100808354040283529160200191610e70565b820191906000526020600020905b815481529060010190602001808311610e5357829003601f168201915b5050505050915050919050565b6060610e88826114b6565b610ec7576040517f08c379a0000000000000000000000000000000000000000000000000000000008152600401610ebe906136fd565b60405180910390fd5b6000600660008481526020019081526020016000208054610ee790613a7c565b80601f0160208091040260200160405190810160405280929190818152602001828054610f1390613a7c565b8015610f605780601f10610f3557610100808354040283529160200191610f60565b820191906000526020600020905b815481529060010190602001808311610f4357829003601f168201915b505050505090506000610f71611cc6565b9050600081511415610f87578192505050610fca565b600082511115610fbc578082604051602001610fa49291906132e1565b60405160208183030381529060405292505050610fca565b610fc584611cdd565b925050505b919050565b6003601060003373ffffffffffffffffffffffffffffffffffffffff1673ffffffffffffffffffffffffffffffffffffffff1681526020019081526020016000205410611051576040517f08c379a0000000000000000000000000000000000000000000000000000000008152600401611048906135dd565b60405180910390fd5b6064600f5410611096576040517f08c379a000000000000000000000000000000000000000000000000000000000815260040161108d906137bd565b60405180910390fd5b60006110a26007611d84565b905060006110af82610767565b905060006110bc83610bd5565b905060006110c984610d5f565b905060008383836040516020016110e293929190613305565b604051602081830303815290604052905060006110fe866108a5565b90506000600882600985600a60405160200161111e959493929190613336565b604051602081830303815290604052905060006111638461113e84611d92565b60405160200161114f9291906133e7565b604051602081830303815290604052611d92565b9050600081604051602001611178919061344e565b60405160208183030381529060405290506111c76040518060400160405280601581526020017f0a2d2d2d2d2d2d2d2d2d2d2d2d2d2d2d2d2d2d2d2d00000000000000000000008152506113b3565b6111ef816040516020016111db9190613381565b6040516020818303038152906040526113b3565b61122d6040518060400160405280601581526020017f2d2d2d2d2d2d2d2d2d2d2d2d2d2d2d2d2d2d2d2d0a00000000000000000000008152506113b3565b611237338a611f31565b6112418982611f4f565b611264604051806060016040528060268152602001613c92602691398a33611fc3565b61126e6007612062565b601060003373ffffffffffffffffffffffffffffffffffffffff1673ffffffffffffffffffffffffffffffffffffffff16815260200190815260200160002060008154809291906112be90613aae565b9190505550600f60008154809291906112d690613aae565b91905055507febb98688741ffa4c7589bf325de30cf7becb63de567842e1ccdb6cb949fdc82c338a60405161130c9291906134f9565b60405180910390a1505050505050505050565b6000600560008473ffffffffffffffffffffffffffffffffffffffff1673ffffffffffffffffffffffffffffffffffffffff16815260200190815260200160002060008373ffffffffffffffffffffffffffffffffffffffff1673ffffffffffffffffffffffffffffffffffffffff16815260200190815260200160002060009054906101000a900460ff16905092915050565b611449816040516024016113c7919061353d565b6040516020818303038152906040527f41304fac000000000000000000000000000000000000000000000000000000007bffffffffffffffffffffffffffffffffffffffffffffffffffffffff19166020820180517bffffffffffffffffffffffffffffffffffffffffffffffffffffffff8381831617835250505050612078565b50565b60007f01ffc9a7000000000000000000000000000000000000000000000000000000007bffffffffffffffffffffffffffffffffffffffffffffffffffffffff1916827bffffffffffffffffffffffffffffffffffffffffffffffffffffffff1916149050919050565b60008073ffffffffffffffffffffffffffffffffffffffff166002600084815260200190815260200160002060009054906101000a900473ffffffffffffffffffffffffffffffffffffffff1673ffffffffffffffffffffffffffffffffffffffff1614159050919050565b600033905090565b816004600083815260200190815260200160002060006101000a81548173ffffffffffffffffffffffffffffffffffffffff021916908373ffffffffffffffffffffffffffffffffffffffff160217905550808273ffffffffffffffffffffffffffffffffffffffff1661159d836109c3565b73ffffffffffffffffffffffffffffffffffffffff167f8c5be1e5ebec7d5bd14f71427d1e84f3dd0314c0f7b2291e5b200ac8c7c3b92560405160405180910390a45050565b60006115ee826114b6565b61162d576040517f08c379a00000000000000000000000000000000000000000000000000000000081526004016116249061363d565b60405180910390fd5b6000611638836109c3565b90508073ffffffffffffffffffffffffffffffffffffffff168473ffffffffffffffffffffffffffffffffffffffff1614806116a757508373ffffffffffffffffffffffffffffffffffffffff1661168f8461056a565b73ffffffffffffffffffffffffffffffffffffffff16145b806116b857506116b7818561131f565b5b91505092915050565b8273ffffffffffffffffffffffffffffffffffffffff166116e1826109c3565b73ffffffffffffffffffffffffffffffffffffffff1614611737576040517f08c379a000000000000000000000000000000000000000000000000000000000815260040161172e9061373d565b60405180910390fd5b600073ffffffffffffffffffffffffffffffffffffffff168273ffffffffffffffffffffffffffffffffffffffff1614156117a7576040517f08c379a000000000000000000000000000000000000000000000000000000000815260040161179e906135fd565b60405180910390fd5b6117b28383836120a1565b6117bd60008261152a565b6001600360008573ffffffffffffffffffffffffffffffffffffffff1673ffffffffffffffffffffffffffffffffffffffff168152602001908152602001600020600082825461180d9190613992565b925050819055506001600360008473ffffffffffffffffffffffffffffffffffffffff1673ffffffffffffffffffffffffffffffffffffffff168152602001908152602001600020600082825461186491906138b1565b92505081905550816002600083815260200190815260200160002060006101000a81548173ffffffffffffffffffffffffffffffffffffffff021916908373ffffffffffffffffffffffffffffffffffffffff160217905550808273ffffffffffffffffffffffffffffffffffffffff168473ffffffffffffffffffffffffffffffffffffffff167fddf252ad1be2c89b69c2b068fc378daa952ba7f163c4a11628f55a4df523b3ef60405160405180910390a4505050565b60606000821415611965576040518060400160405280600181526020017f30000000000000000000000000000000000000000000000000000000000000008152509050611ac5565b600082905060005b6000821461199757808061198090613aae565b915050600a826119909190613907565b915061196d565b60008167ffffffffffffffff8111156119d9577f4e487b7100000000000000000000000000000000000000000000000000000000600052604160045260246000fd5b6040519080825280601f01601f191660200182016040528015611a0b5781602001600182028036833780820191505090505b5090505b60008514611abe57600182611a249190613992565b9150600a85611a339190613af7565b6030611a3f91906138b1565b60f81b818381518110611a7b577f4e487b7100000000000000000000000000000000000000000000000000000000600052603260045260246000fd5b60200101907effffffffffffffffffffffffffffffffffffffffffffffffffffffffffffff1916908160001a905350600a85611ab79190613907565b9450611a0f565b8093505050505b919050565b600081604051602001611add91906132ca565b6040516020818303038152906040528051906020012060001c9050919050565b8173ffffffffffffffffffffffffffffffffffffffff168373ffffffffffffffffffffffffffffffffffffffff161415611b6c576040517f08c379a0000000000000000000000000000000000000000000000000000000008152600401611b639061361d565b60405180910390fd5b80600560008573ffffffffffffffffffffffffffffffffffffffff1673ffffffffffffffffffffffffffffffffffffffff16815260200190815260200160002060008473ffffffffffffffffffffffffffffffffffffffff1673ffffffffffffffffffffffffffffffffffffffff16815260200190815260200160002060006101000a81548160ff0219169083151502179055508173ffffffffffffffffffffffffffffffffffffffff168373ffffffffffffffffffffffffffffffffffffffff167f17307eab39ab6107e8899845ad3d59bd9653f200f220920489ca2b5937696c3183604051611c5d9190613522565b60405180910390a3505050565b611c758484846116c1565b611c81848484846120a6565b611cc0576040517f08c379a0000000000000000000000000000000000000000000000000000000008152600401611cb79061359d565b60405180910390fd5b50505050565b606060405180602001604052806000815250905090565b6060611ce8826114b6565b611d27576040517f08c379a0000000000000000000000000000000000000000000000000000000008152600401611d1e9061375d565b60405180910390fd5b6000611d31611cc6565b90506000815111611d515760405180602001604052806000815250611d7c565b80611d5b8461191d565b604051602001611d6c9291906132e1565b6040516020818303038152906040525b915050919050565b600081600001549050919050565b6060600082511415611db557604051806020016040528060008152509050611f2c565b6000604051806060016040528060408152602001613c526040913990506000600360028551611de491906138b1565b611dee9190613907565b6004611dfa9190613938565b90506000602082611e0b91906138b1565b67ffffffffffffffff811115611e4a577f4e487b7100000000000000000000000000000000000000000000000000000000600052604160045260246000fd5b6040519080825280601f01601f191660200182016040528015611e7c5781602001600182028036833780820191505090505b509050818152600183018586518101602084015b81831015611eeb576003830192508251603f8160121c168501518253600182019150603f81600c1c168501518253600182019150603f8160061c168501518253600182019150603f8116850151825360018201915050611e90565b600389510660018114611f055760028114611f1557611f20565b613d3d60f01b6002830352611f20565b603d60f81b60018303525b50505050508093505050505b919050565b611f4b82826040518060200160405280600081525061223d565b5050565b611f58826114b6565b611f97576040517f08c379a0000000000000000000000000000000000000000000000000000000008152600401611f8e906136bd565b60405180910390fd5b80600660008481526020019081526020016000209080519060200190611fbe929190612479565b505050565b61205d838383604051602401611fdb9392919061355f565b6040516020818303038152906040527fe3849f79000000000000000000000000000000000000000000000000000000007bffffffffffffffffffffffffffffffffffffffffffffffffffffffff19166020820180517bffffffffffffffffffffffffffffffffffffffffffffffffffffffff8381831617835250505050612078565b505050565b6001816000016000828254019250508190555050565b60008151905060006a636f6e736f6c652e6c6f679050602083016000808483855afa5050505050565b505050565b60006120c78473ffffffffffffffffffffffffffffffffffffffff16612298565b15612230578373ffffffffffffffffffffffffffffffffffffffff1663150b7a026120f0611522565b8786866040518563ffffffff1660e01b815260040161211294939291906134ad565b602060405180830381600087803b15801561212c57600080fd5b505af192505050801561215d57506040513d601f19601f8201168201806040525081019061215a91906127bd565b60015b6121e0573d806000811461218d576040519150601f19603f3d011682016040523d82523d6000602084013e612192565b606091505b506000815114156121d8576040517f08c379a00000000000000000000000000000000000000000000000000000000081526004016121cf9061359d565b60405180910390fd5b805181602001fd5b63150b7a0260e01b7bffffffffffffffffffffffffffffffffffffffffffffffffffffffff1916817bffffffffffffffffffffffffffffffffffffffffffffffffffffffff191614915050612235565b600190505b949350505050565b61224783836122ab565b61225460008484846120a6565b612293576040517f08c379a000000000000000000000000000000000000000000000000000000000815260040161228a9061359d565b60405180910390fd5b505050565b600080823b905060008111915050919050565b600073ffffffffffffffffffffffffffffffffffffffff168273ffffffffffffffffffffffffffffffffffffffff16141561231b576040517f08c379a0000000000000000000000000000000000000000000000000000000008152600401612312906136dd565b60405180910390fd5b612324816114b6565b15612364576040517f08c379a000000000000000000000000000000000000000000000000000000000815260040161235b906135bd565b60405180910390fd5b612370600083836120a1565b6001600360008473ffffffffffffffffffffffffffffffffffffffff1673ffffffffffffffffffffffffffffffffffffffff16815260200190815260200160002060008282546123c091906138b1565b92505081905550816002600083815260200190815260200160002060006101000a81548173ffffffffffffffffffffffffffffffffffffffff021916908373ffffffffffffffffffffffffffffffffffffffff160217905550808273ffffffffffffffffffffffffffffffffffffffff16600073ffffffffffffffffffffffffffffffffffffffff167fddf252ad1be2c89b69c2b068fc378daa952ba7f163c4a11628f55a4df523b3ef60405160405180910390a45050565b82805461248590613a7c565b90600052602060002090601f0160209004810192826124a757600085556124ee565b82601f106124c057805160ff19168380011785556124ee565b828001600101855582156124ee579182015b828111156124ed5782518255916020019190600101906124d2565b5b5090506124fb91906124ff565b5090565b5b80821115612518576000816000905550600101612500565b5090565b600061252f61252a84613829565b6137f8565b90508281526020810184848401111561254757600080fd5b612552848285613a3a565b509392505050565b60008135905061256981613bf5565b92915050565b60008135905061257e81613c0c565b92915050565b60008135905061259381613c23565b92915050565b6000815190506125a881613c23565b92915050565b600082601f8301126125bf57600080fd5b81356125cf84826020860161251c565b91505092915050565b6000813590506125e781613c3a565b92915050565b6000602082840312156125ff57600080fd5b600061260d8482850161255a565b91505092915050565b6000806040838503121561262957600080fd5b60006126378582860161255a565b92505060206126488582860161255a565b9150509250929050565b60008060006060848603121561266757600080fd5b60006126758682870161255a565b93505060206126868682870161255a565b9250506040612697868287016125d8565b9150509250925092565b600080600080608085870312156126b757600080fd5b60006126c58782880161255a565b94505060206126d68782880161255a565b93505060406126e7878288016125d8565b925050606085013567ffffffffffffffff81111561270457600080fd5b612710878288016125ae565b91505092959194509250565b6000806040838503121561272f57600080fd5b600061273d8582860161255a565b925050602061274e8582860161256f565b9150509250929050565b6000806040838503121561276b57600080fd5b60006127798582860161255a565b925050602061278a858286016125d8565b9150509250929050565b6000602082840312156127a657600080fd5b60006127b484828501612584565b91505092915050565b6000602082840312156127cf57600080fd5b60006127dd84828501612599565b91505092915050565b6000602082840312156127f857600080fd5b6000612806848285016125d8565b91505092915050565b612818816139c6565b82525050565b612827816139d8565b82525050565b60006128388261386e565b6128428185613884565b9350612852818560208601613a49565b61285b81613be4565b840191505092915050565b600061287182613879565b61287b8185613895565b935061288b818560208601613a49565b61289481613be4565b840191505092915050565b60006128aa82613879565b6128b481856138a6565b93506128c4818560208601613a49565b80840191505092915050565b600081546128dd81613a7c565b6128e781866138a6565b94506001821660008114612902576001811461291357612946565b60ff19831686528186019350612946565b61291c85613859565b60005b8381101561293e5781548189015260018201915060208101905061291f565b838801955050505b50505092915050565b600061295c6025836138a6565b91507f68747470733a2f2f6e6674707265766965772e30786465762e636f6465732f3f60008301527f636f64653d0000000000000000000000000000000000000000000000000000006020830152602582019050919050565b60006129c2603283613895565b91507f4552433732313a207472616e7366657220746f206e6f6e20455243373231526560008301527f63656976657220696d706c656d656e74657200000000000000000000000000006020830152604082019050919050565b6000612a28601c83613895565b91507f4552433732313a20746f6b656e20616c7265616479206d696e746564000000006000830152602082019050919050565b6000612a68600a836138a6565b91507f54484952445f574f5244000000000000000000000000000000000000000000006000830152600a82019050919050565b6000612aa8602a83613895565b91507f55736572732063616e206f6e6c79206d696e7420757020746f2074687265652060008301527f4e46545320656163682e000000000000000000000000000000000000000000006020830152604082019050919050565b6000612b0e602483613895565b91507f4552433732313a207472616e7366657220746f20746865207a65726f2061646460008301527f72657373000000000000000000000000000000000000000000000000000000006020830152604082019050919050565b6000612b74601983613895565b91507f4552433732313a20617070726f766520746f2063616c6c6572000000000000006000830152602082019050919050565b6000612bb4600b836138a6565b91507f5345434f4e445f574f52440000000000000000000000000000000000000000006000830152600b82019050919050565b6000612bf4602c83613895565b91507f4552433732313a206f70657261746f7220717565727920666f72206e6f6e657860008301527f697374656e7420746f6b656e00000000000000000000000000000000000000006020830152604082019050919050565b6000612c5a603883613895565b91507f4552433732313a20617070726f76652063616c6c6572206973206e6f74206f7760008301527f6e6572206e6f7220617070726f76656420666f7220616c6c00000000000000006020830152604082019050919050565b6000612cc0602a83613895565b91507f4552433732313a2062616c616e636520717565727920666f7220746865207a6560008301527f726f2061646472657373000000000000000000000000000000000000000000006020830152604082019050919050565b6000612d26602983613895565b91507f4552433732313a206f776e657220717565727920666f72206e6f6e657869737460008301527f656e7420746f6b656e00000000000000000000000000000000000000000000006020830152604082019050919050565b6000612d8c602e83613895565b91507f45524337323155524953746f726167653a2055524920736574206f66206e6f6e60008301527f6578697374656e7420746f6b656e0000000000000000000000000000000000006020830152604082019050919050565b6000612df26002836138a6565b91507f227d0000000000000000000000000000000000000000000000000000000000006000830152600282019050919050565b6000612e32602083613895565b91507f4552433732313a206d696e7420746f20746865207a65726f20616464726573736000830152602082019050919050565b6000612e72603183613895565b91507f45524337323155524953746f726167653a2055524920717565727920666f722060008301527f6e6f6e6578697374656e7420746f6b656e0000000000000000000000000000006020830152604082019050919050565b6000612ed8602c83613895565b91507f4552433732313a20617070726f76656420717565727920666f72206e6f6e657860008301527f697374656e7420746f6b656e00000000000000000000000000000000000000006020830152604082019050919050565b6000612f3e602983613895565b91507f4552433732313a207472616e73666572206f6620746f6b656e2074686174206960008301527f73206e6f74206f776e00000000000000000000000000000000000000000000006020830152604082019050919050565b6000612fa4602f83613895565b91507f4552433732314d657461646174613a2055524920717565727920666f72206e6f60008301527f6e6578697374656e7420746f6b656e00000000000000000000000000000000006020830152604082019050919050565b600061300a600a836138a6565b91507f7b226e616d65223a2022000000000000000000000000000000000000000000006000830152600a82019050919050565b600061304a602183613895565b91507f4552433732313a20617070726f76616c20746f2063757272656e74206f776e6560008301527f72000000000000000000000000000000000000000000000000000000000000006020830152604082019050919050565b60006130b0600a836138a6565b91507f46495253545f574f5244000000000000000000000000000000000000000000006000830152600a82019050919050565b60006130f0601d836138a6565b91507f646174613a6170706c69636174696f6e2f6a736f6e3b6261736536342c0000006000830152601d82019050919050565b60006131306049836138a6565b91507f222c20226465736372697074696f6e223a20225761636b6f20576f726473204e60008301527f4654222c2022696d616765223a2022646174613a696d6167652f7376672b786d60208301527f6c3b6261736536342c00000000000000000000000000000000000000000000006040830152604982019050919050565b60006131bc6006836138a6565b91507f434f4c4f555200000000000000000000000000000000000000000000000000006000830152600682019050919050565b60006131fc603183613895565b91507f4552433732313a207472616e736665722063616c6c6572206973206e6f74206f60008301527f776e6572206e6f7220617070726f7665640000000000000000000000000000006020830152604082019050919050565b6000613262602883613895565b91507f536f6c64206f75742120416c6c20313030204e4654532068617665206265656e60008301527f206d696e7465642e0000000000000000000000000000000000000000000000006020830152604082019050919050565b6132c481613a30565b82525050565b60006132d6828461289f565b915081905092915050565b60006132ed828561289f565b91506132f9828461289f565b91508190509392505050565b6000613311828661289f565b915061331d828561289f565b9150613329828461289f565b9150819050949350505050565b600061334282886128d0565b915061334e828761289f565b915061335a82866128d0565b9150613366828561289f565b915061337282846128d0565b91508190509695505050505050565b600061338c8261294f565b9150613398828461289f565b915081905092915050565b60006133ae82612a5b565b91506133ba828461289f565b915081905092915050565b60006133d082612ba7565b91506133dc828461289f565b915081905092915050565b60006133f282612ffd565b91506133fe828561289f565b915061340982613123565b9150613415828461289f565b915061342082612de5565b91508190509392505050565b6000613437826130a3565b9150613443828461289f565b915081905092915050565b6000613459826130e3565b9150613465828461289f565b915081905092915050565b600061347b826131af565b9150613487828461289f565b915081905092915050565b60006020820190506134a7600083018461280f565b92915050565b60006080820190506134c2600083018761280f565b6134cf602083018661280f565b6134dc60408301856132bb565b81810360608301526134ee818461282d565b905095945050505050565b600060408201905061350e600083018561280f565b61351b60208301846132bb565b9392505050565b6000602082019050613537600083018461281e565b92915050565b600060208201905081810360008301526135578184612866565b905092915050565b600060608201905081810360008301526135798186612866565b905061358860208301856132bb565b613595604083018461280f565b949350505050565b600060208201905081810360008301526135b6816129b5565b9050919050565b600060208201905081810360008301526135d681612a1b565b9050919050565b600060208201905081810360008301526135f681612a9b565b9050919050565b6000602082019050818103600083015261361681612b01565b9050919050565b6000602082019050818103600083015261363681612b67565b9050919050565b6000602082019050818103600083015261365681612be7565b9050919050565b6000602082019050818103600083015261367681612c4d565b9050919050565b6000602082019050818103600083015261369681612cb3565b9050919050565b600060208201905081810360008301526136b681612d19565b9050919050565b600060208201905081810360008301526136d681612d7f565b9050919050565b600060208201905081810360008301526136f681612e25565b9050919050565b6000602082019050818103600083015261371681612e65565b9050919050565b6000602082019050818103600083015261373681612ecb565b9050919050565b6000602082019050818103600083015261375681612f31565b9050919050565b6000602082019050818103600083015261377681612f97565b9050919050565b600060208201905081810360008301526137968161303d565b9050919050565b600060208201905081810360008301526137b6816131ef565b9050919050565b600060208201905081810360008301526137d681613255565b9050919050565b60006020820190506137f260008301846132bb565b92915050565b6000604051905081810181811067ffffffffffffffff8211171561381f5761381e613bb5565b5b8060405250919050565b600067ffffffffffffffff82111561384457613843613bb5565b5b601f19601f8301169050602081019050919050565b60008190508160005260206000209050919050565b600081519050919050565b600081519050919050565b600082825260208201905092915050565b600082825260208201905092915050565b600081905092915050565b60006138bc82613a30565b91506138c783613a30565b9250827fffffffffffffffffffffffffffffffffffffffffffffffffffffffffffffffff038211156138fc576138fb613b28565b5b828201905092915050565b600061391282613a30565b915061391d83613a30565b92508261392d5761392c613b57565b5b828204905092915050565b600061394382613a30565b915061394e83613a30565b9250817fffffffffffffffffffffffffffffffffffffffffffffffffffffffffffffffff048311821515161561398757613986613b28565b5b828202905092915050565b600061399d82613a30565b91506139a883613a30565b9250828210156139bb576139ba613b28565b5b828203905092915050565b60006139d182613a10565b9050919050565b60008115159050919050565b60007fffffffff0000000000000000000000000000000000000000000000000000000082169050919050565b600073ffffffffffffffffffffffffffffffffffffffff82169050919050565b6000819050919050565b82818337600083830152505050565b60005b83811015613a67578082015181840152602081019050613a4c565b83811115613a76576000848401525b50505050565b60006002820490506001821680613a9457607f821691505b60208210811415613aa857613aa7613b86565b5b50919050565b6000613ab982613a30565b91507fffffffffffffffffffffffffffffffffffffffffffffffffffffffffffffffff821415613aec57613aeb613b28565b5b600182019050919050565b6000613b0282613a30565b9150613b0d83613a30565b925082613b1d57613b1c613b57565b5b828206905092915050565b7f4e487b7100000000000000000000000000000000000000000000000000000000600052601160045260246000fd5b7f4e487b7100000000000000000000000000000000000000000000000000000000600052601260045260246000fd5b7f4e487b7100000000000000000000000000000000000000000000000000000000600052602260045260246000fd5b7f4e487b7100000000000000000000000000000000000000000000000000000000600052604160045260246000fd5b6000601f19601f8301169050919050565b613bfe816139c6565b8114613c0957600080fd5b50565b613c15816139d8565b8114613c2057600080fd5b50565b613c2c816139e4565b8114613c3757600080fd5b50565b613c4381613a30565b8114613c4e57600080fd5b5056fe4142434445464748494a4b4c4d4e4f505152535455565758595a6162636465666768696a6b6c6d6e6f707172737475767778797a303132333435363738392b2f416e204e465420772f20494420257320686173206265656e206d696e74656420666f72202573a264697066735822122091c1cda2caae7363c55222fa9f6e4ff419c71881081e169c92b884df57bfebf864736f6c634300080000333c73766720786d6c6e733d27687474703a2f2f7777772e77332e6f72672f323030302f73766727207072657365727665417370656374526174696f3d27784d696e594d696e206d656574272076696577426f783d273020302033353020333530273e3c7374796c653e2e62617365207b2066696c6c3a2077686974653b20666f6e742d66616d696c793a20427275736820536372697074204d543b20666f6e742d73697a653a20333070783b2020746578742d736861646f773a203020323070782035707820626c61636b3b7d3c2f7374796c653e3c726563742077696474683d273130302527206865696768743d2731303025272066696c6c3d27272f3e3c7465787420783d273530252720793d273530252720636c6173733d27626173652720646f6d696e616e742d626173656c696e653d276d6964646c652720746578742d616e63686f723d276d6964646c65273e",
  "linkReferences": {},
  "deployedLinkReferences": {}
}